{
  "_format": "hh-sol-artifact-1",
  "contractName": "Haven",
  "sourceName": "contracts/Haven.sol",
  "abi": [
    {
      "inputs": [],
      "stateMutability": "nonpayable",
      "type": "constructor"
    },
    {
      "anonymous": false,
      "inputs": [
        {
          "indexed": true,
          "internalType": "address",
          "name": "owner",
          "type": "address"
        },
        {
          "indexed": true,
          "internalType": "address",
          "name": "spender",
          "type": "address"
        },
        {
          "indexed": false,
          "internalType": "uint256",
          "name": "value",
          "type": "uint256"
        }
      ],
      "name": "Approval",
      "type": "event"
    },
    {
      "anonymous": false,
      "inputs": [
        {
          "indexed": true,
          "internalType": "address",
          "name": "from",
          "type": "address"
        },
        {
          "indexed": true,
          "internalType": "address",
          "name": "to",
          "type": "address"
        },
        {
          "indexed": false,
          "internalType": "uint256",
          "name": "value",
          "type": "uint256"
        }
      ],
      "name": "Transfer",
      "type": "event"
    },
    {
      "inputs": [
        {
          "internalType": "address",
          "name": "owner",
          "type": "address"
        },
        {
          "internalType": "address",
          "name": "spender",
          "type": "address"
        }
      ],
      "name": "allowance",
      "outputs": [
        {
          "internalType": "uint256",
          "name": "",
          "type": "uint256"
        }
      ],
      "stateMutability": "view",
      "type": "function"
    },
    {
      "inputs": [
        {
          "internalType": "address",
          "name": "spender",
          "type": "address"
        },
        {
          "internalType": "uint256",
          "name": "amount",
          "type": "uint256"
        }
      ],
      "name": "approve",
      "outputs": [
        {
          "internalType": "bool",
          "name": "",
          "type": "bool"
        }
      ],
      "stateMutability": "nonpayable",
      "type": "function"
    },
    {
      "inputs": [
        {
          "internalType": "address",
          "name": "account",
          "type": "address"
        }
      ],
      "name": "balanceOf",
      "outputs": [
        {
          "internalType": "uint256",
          "name": "",
          "type": "uint256"
        }
      ],
      "stateMutability": "view",
      "type": "function"
    },
    {
      "inputs": [],
      "name": "buyTokens",
      "outputs": [],
      "stateMutability": "payable",
      "type": "function"
    },
    {
      "inputs": [],
      "name": "decimals",
      "outputs": [
        {
          "internalType": "uint8",
          "name": "",
          "type": "uint8"
        }
      ],
      "stateMutability": "view",
      "type": "function"
    },
    {
      "inputs": [],
      "name": "getEthBalance",
      "outputs": [
        {
          "internalType": "uint256",
          "name": "",
          "type": "uint256"
        }
      ],
      "stateMutability": "view",
      "type": "function"
    },
    {
      "inputs": [],
      "name": "name",
      "outputs": [
        {
          "internalType": "string",
          "name": "",
          "type": "string"
        }
      ],
      "stateMutability": "view",
      "type": "function"
    },
    {
      "inputs": [
        {
          "internalType": "uint256",
          "name": "tokenAmount",
          "type": "uint256"
        }
      ],
      "name": "sellTokens",
      "outputs": [],
      "stateMutability": "nonpayable",
      "type": "function"
    },
    {
      "inputs": [],
      "name": "symbol",
      "outputs": [
        {
          "internalType": "string",
          "name": "",
          "type": "string"
        }
      ],
      "stateMutability": "view",
      "type": "function"
    },
    {
      "inputs": [],
      "name": "totalSupply",
      "outputs": [
        {
          "internalType": "uint256",
          "name": "",
          "type": "uint256"
        }
      ],
      "stateMutability": "view",
      "type": "function"
    },
    {
      "inputs": [
        {
          "internalType": "address",
          "name": "recipient",
          "type": "address"
        },
        {
          "internalType": "uint256",
          "name": "amount",
          "type": "uint256"
        }
      ],
      "name": "transfer",
      "outputs": [
        {
          "internalType": "bool",
          "name": "",
          "type": "bool"
        }
      ],
      "stateMutability": "nonpayable",
      "type": "function"
    },
    {
      "inputs": [
        {
          "internalType": "address",
          "name": "sender",
          "type": "address"
        },
        {
          "internalType": "address",
          "name": "recipient",
          "type": "address"
        },
        {
          "internalType": "uint256",
          "name": "amount",
          "type": "uint256"
        }
      ],
      "name": "transferFrom",
      "outputs": [
        {
          "internalType": "bool",
          "name": "",
          "type": "bool"
        }
      ],
      "stateMutability": "nonpayable",
      "type": "function"
    }
  ],
  "bytecode": "0x608060405266038d7ea4c680006004553480156200001c57600080fd5b506040518060400160405280600581526020017f486176656e000000000000000000000000000000000000000000000000000000815250600090816200006391906200043e565b506040518060400160405280600381526020017f48564e000000000000000000000000000000000000000000000000000000000081525060019081620000aa91906200043e565b506012600260006101000a81548160ff021916908360ff160217905550600260009054906101000a900460ff16600a620000e59190620006b5565b6103e8620000f4919062000706565b6003600082825462000107919062000767565b92505081905550600354600560003373ffffffffffffffffffffffffffffffffffffffff1673ffffffffffffffffffffffffffffffffffffffff168152602001908152602001600020819055503373ffffffffffffffffffffffffffffffffffffffff16600073ffffffffffffffffffffffffffffffffffffffff167fddf252ad1be2c89b69c2b068fc378daa952ba7f163c4a11628f55a4df523b3ef600354604051620001b69190620007b3565b60405180910390a3620007d0565b600081519050919050565b7f4e487b7100000000000000000000000000000000000000000000000000000000600052604160045260246000fd5b7f4e487b7100000000000000000000000000000000000000000000000000000000600052602260045260246000fd5b600060028204905060018216806200024657607f821691505b6020821081036200025c576200025b620001fe565b5b50919050565b60008190508160005260206000209050919050565b60006020601f8301049050919050565b600082821b905092915050565b600060088302620002c67fffffffffffffffffffffffffffffffffffffffffffffffffffffffffffffffff8262000287565b620002d2868362000287565b95508019841693508086168417925050509392505050565b6000819050919050565b6000819050919050565b60006200031f620003196200031384620002ea565b620002f4565b620002ea565b9050919050565b6000819050919050565b6200033b83620002fe565b620003536200034a8262000326565b84845462000294565b825550505050565b600090565b6200036a6200035b565b6200037781848462000330565b505050565b5b818110156200039f576200039360008262000360565b6001810190506200037d565b5050565b601f821115620003ee57620003b88162000262565b620003c38462000277565b81016020851015620003d3578190505b620003eb620003e28562000277565b8301826200037c565b50505b505050565b600082821c905092915050565b60006200041360001984600802620003f3565b1980831691505092915050565b60006200042e838362000400565b9150826002028217905092915050565b6200044982620001c4565b67ffffffffffffffff811115620004655762000464620001cf565b5b6200047182546200022d565b6200047e828285620003a3565b600060209050601f831160018114620004b65760008415620004a1578287015190505b620004ad858262000420565b8655506200051d565b601f198416620004c68662000262565b60005b82811015620004f057848901518255600182019150602085019450602081019050620004c9565b868310156200051057848901516200050c601f89168262000400565b8355505b6001600288020188555050505b505050505050565b7f4e487b7100000000000000000000000000000000000000000000000000000000600052601160045260246000fd5b60008160011c9050919050565b6000808291508390505b6001851115620005b3578086048111156200058b576200058a62000525565b5b60018516156200059b5780820291505b8081029050620005ab8562000554565b94506200056b565b94509492505050565b600082620005ce5760019050620006a1565b81620005de5760009050620006a1565b8160018114620005f75760028114620006025762000638565b6001915050620006a1565b60ff84111562000617576200061662000525565b5b8360020a91508482111562000631576200063062000525565b5b50620006a1565b5060208310610133831016604e8410600b8410161715620006725782820a9050838111156200066c576200066b62000525565b5b620006a1565b62000681848484600162000561565b925090508184048111156200069b576200069a62000525565b5b81810290505b9392505050565b600060ff82169050919050565b6000620006c282620002ea565b9150620006cf83620006a8565b9250620006fe7fffffffffffffffffffffffffffffffffffffffffffffffffffffffffffffffff8484620005bc565b905092915050565b60006200071382620002ea565b91506200072083620002ea565b9250817fffffffffffffffffffffffffffffffffffffffffffffffffffffffffffffffff04831182151516156200075c576200075b62000525565b5b828202905092915050565b60006200077482620002ea565b91506200078183620002ea565b92508282019050808211156200079c576200079b62000525565b5b92915050565b620007ad81620002ea565b82525050565b6000602082019050620007ca6000830184620007a2565b92915050565b6114e880620007e06000396000f3fe6080604052600436106100a75760003560e01c806370a082311161006457806370a08231146101d057806370ed0ada1461020d57806395d89b4114610238578063a9059cbb14610263578063d0febe4c146102a0578063dd62ed3e146102aa576100a7565b806306fdde03146100ac578063095ea7b3146100d757806318160ddd1461011457806323b872dd1461013f578063313ce5671461017c5780636c11bcd3146101a7575b600080fd5b3480156100b857600080fd5b506100c16102e7565b6040516100ce9190610d7a565b60405180910390f35b3480156100e357600080fd5b506100fe60048036038101906100f99190610e35565b610375565b60405161010b9190610e90565b60405180910390f35b34801561012057600080fd5b50610129610467565b6040516101369190610eba565b60405180910390f35b34801561014b57600080fd5b5061016660048036038101906101619190610ed5565b610471565b6040516101739190610e90565b60405180910390f35b34801561018857600080fd5b50610191610622565b60405161019e9190610f44565b60405180910390f35b3480156101b357600080fd5b506101ce60048036038101906101c99190610f5f565b610635565b005b3480156101dc57600080fd5b506101f760048036038101906101f29190610f8c565b6108b8565b6040516102049190610eba565b60405180910390f35b34801561021957600080fd5b50610222610901565b60405161022f9190610eba565b60405180910390f35b34801561024457600080fd5b5061024d610920565b60405161025a9190610d7a565b60405180910390f35b34801561026f57600080fd5b5061028a60048036038101906102859190610e35565b6109ae565b6040516102979190610e90565b60405180910390f35b6102a8610acb565b005b3480156102b657600080fd5b506102d160048036038101906102cc9190610fb9565b610c63565b6040516102de9190610eba565b60405180910390f35b600080546102f490611028565b80601f016020809104026020016040519081016040528092919081815260200182805461032090611028565b801561036d5780601f106103425761010080835404028352916020019161036d565b820191906000526020600020905b81548152906001019060200180831161035057829003601f168201915b505050505081565b600081600660003373ffffffffffffffffffffffffffffffffffffffff1673ffffffffffffffffffffffffffffffffffffffff16815260200190815260200160002060008573ffffffffffffffffffffffffffffffffffffffff1673ffffffffffffffffffffffffffffffffffffffff168152602001908152602001600020819055508273ffffffffffffffffffffffffffffffffffffffff163373ffffffffffffffffffffffffffffffffffffffff167f8c5be1e5ebec7d5bd14f71427d1e84f3dd0314c0f7b2291e5b200ac8c7c3b925846040516104559190610eba565b60405180910390a36001905092915050565b6000600354905090565b600081600660008673ffffffffffffffffffffffffffffffffffffffff1673ffffffffffffffffffffffffffffffffffffffff16815260200190815260200160002060003373ffffffffffffffffffffffffffffffffffffffff1673ffffffffffffffffffffffffffffffffffffffff16815260200190815260200160002060008282546104ff9190611088565b9250508190555081600560008673ffffffffffffffffffffffffffffffffffffffff1673ffffffffffffffffffffffffffffffffffffffff16815260200190815260200160002060008282546105559190611088565b9250508190555081600560008573ffffffffffffffffffffffffffffffffffffffff1673ffffffffffffffffffffffffffffffffffffffff16815260200190815260200160002060008282546105ab91906110bc565b925050819055508273ffffffffffffffffffffffffffffffffffffffff168473ffffffffffffffffffffffffffffffffffffffff167fddf252ad1be2c89b69c2b068fc378daa952ba7f163c4a11628f55a4df523b3ef8460405161060f9190610eba565b60405180910390a3600190509392505050565b600260009054906101000a900460ff1681565b60008111610678576040517f08c379a000000000000000000000000000000000000000000000000000000000815260040161066f9061113c565b60405180910390fd5b80600560003373ffffffffffffffffffffffffffffffffffffffff1673ffffffffffffffffffffffffffffffffffffffff1681526020019081526020016000205410156106fa576040517f08c379a00000000000000000000000000000000000000000000000000000000081526004016106f1906111a8565b60405180910390fd5b6000600454600260009054906101000a900460ff16600a61071b91906112fb565b836107269190611375565b61073091906113a6565b905081600560003373ffffffffffffffffffffffffffffffffffffffff1673ffffffffffffffffffffffffffffffffffffffff16815260200190815260200160002060008282546107819190611088565b92505081905550816003600082825461079a9190611088565b9250508190555060003373ffffffffffffffffffffffffffffffffffffffff16826040516107c790611431565b60006040518083038185875af1925050503d8060008114610804576040519150601f19603f3d011682016040523d82523d6000602084013e610809565b606091505b505090508061084d576040517f08c379a000000000000000000000000000000000000000000000000000000000815260040161084490611492565b60405180910390fd5b600073ffffffffffffffffffffffffffffffffffffffff163373ffffffffffffffffffffffffffffffffffffffff167fddf252ad1be2c89b69c2b068fc378daa952ba7f163c4a11628f55a4df523b3ef856040516108ab9190610eba565b60405180910390a3505050565b6000600560008373ffffffffffffffffffffffffffffffffffffffff1673ffffffffffffffffffffffffffffffffffffffff168152602001908152602001600020549050919050565b60003373ffffffffffffffffffffffffffffffffffffffff1631905090565b6001805461092d90611028565b80601f016020809104026020016040519081016040528092919081815260200182805461095990611028565b80156109a65780601f1061097b576101008083540402835291602001916109a6565b820191906000526020600020905b81548152906001019060200180831161098957829003601f168201915b505050505081565b600081600560003373ffffffffffffffffffffffffffffffffffffffff1673ffffffffffffffffffffffffffffffffffffffff16815260200190815260200160002060008282546109ff9190611088565b9250508190555081600560008573ffffffffffffffffffffffffffffffffffffffff1673ffffffffffffffffffffffffffffffffffffffff1681526020019081526020016000206000828254610a5591906110bc565b925050819055508273ffffffffffffffffffffffffffffffffffffffff163373ffffffffffffffffffffffffffffffffffffffff167fddf252ad1be2c89b69c2b068fc378daa952ba7f163c4a11628f55a4df523b3ef84604051610ab99190610eba565b60405180910390a36001905092915050565b60003411610b0e576040517f08c379a0000000000000000000000000000000000000000000000000000000008152600401610b059061113c565b60405180910390fd5b6000670de0b6b3a764000034610b249190611375565b90506000600454600260009054906101000a900460ff16600a610b4791906112fb565b83610b5291906113a6565b610b5c9190611375565b90506000600260009054906101000a900460ff16600a610b7c91906112fb565b82610b8791906113a6565b905080600560003373ffffffffffffffffffffffffffffffffffffffff1673ffffffffffffffffffffffffffffffffffffffff1681526020019081526020016000206000828254610bd891906110bc565b925050819055508060036000828254610bf191906110bc565b925050819055503373ffffffffffffffffffffffffffffffffffffffff16600073ffffffffffffffffffffffffffffffffffffffff167fddf252ad1be2c89b69c2b068fc378daa952ba7f163c4a11628f55a4df523b3ef83604051610c569190610eba565b60405180910390a3505050565b6000600660008473ffffffffffffffffffffffffffffffffffffffff1673ffffffffffffffffffffffffffffffffffffffff16815260200190815260200160002060008373ffffffffffffffffffffffffffffffffffffffff1673ffffffffffffffffffffffffffffffffffffffff16815260200190815260200160002054905092915050565b600081519050919050565b600082825260208201905092915050565b60005b83811015610d24578082015181840152602081019050610d09565b60008484015250505050565b6000601f19601f8301169050919050565b6000610d4c82610cea565b610d568185610cf5565b9350610d66818560208601610d06565b610d6f81610d30565b840191505092915050565b60006020820190508181036000830152610d948184610d41565b905092915050565b600080fd5b600073ffffffffffffffffffffffffffffffffffffffff82169050919050565b6000610dcc82610da1565b9050919050565b610ddc81610dc1565b8114610de757600080fd5b50565b600081359050610df981610dd3565b92915050565b6000819050919050565b610e1281610dff565b8114610e1d57600080fd5b50565b600081359050610e2f81610e09565b92915050565b60008060408385031215610e4c57610e4b610d9c565b5b6000610e5a85828601610dea565b9250506020610e6b85828601610e20565b9150509250929050565b60008115159050919050565b610e8a81610e75565b82525050565b6000602082019050610ea56000830184610e81565b92915050565b610eb481610dff565b82525050565b6000602082019050610ecf6000830184610eab565b92915050565b600080600060608486031215610eee57610eed610d9c565b5b6000610efc86828701610dea565b9350506020610f0d86828701610dea565b9250506040610f1e86828701610e20565b9150509250925092565b600060ff82169050919050565b610f3e81610f28565b82525050565b6000602082019050610f596000830184610f35565b92915050565b600060208284031215610f7557610f74610d9c565b5b6000610f8384828501610e20565b91505092915050565b600060208284031215610fa257610fa1610d9c565b5b6000610fb084828501610dea565b91505092915050565b60008060408385031215610fd057610fcf610d9c565b5b6000610fde85828601610dea565b9250506020610fef85828601610dea565b9150509250929050565b7f4e487b7100000000000000000000000000000000000000000000000000000000600052602260045260246000fd5b6000600282049050600182168061104057607f821691505b60208210810361105357611052610ff9565b5b50919050565b7f4e487b7100000000000000000000000000000000000000000000000000000000600052601160045260246000fd5b600061109382610dff565b915061109e83610dff565b92508282039050818111156110b6576110b5611059565b5b92915050565b60006110c782610dff565b91506110d283610dff565b92508282019050808211156110ea576110e9611059565b5b92915050565b7f416d6f756e74206d7573742062652067726561746572207468616e2030000000600082015250565b6000611126601d83610cf5565b9150611131826110f0565b602082019050919050565b6000602082019050818103600083015261115581611119565b9050919050565b7f496e73756666696369656e742062616c616e6365000000000000000000000000600082015250565b6000611192601483610cf5565b915061119d8261115c565b602082019050919050565b600060208201905081810360008301526111c181611185565b9050919050565b60008160011c9050919050565b6000808291508390505b600185111561121f578086048111156111fb576111fa611059565b5b600185161561120a5780820291505b8081029050611218856111c8565b94506111df565b94509492505050565b60008261123857600190506112f4565b8161124657600090506112f4565b816001811461125c576002811461126657611295565b60019150506112f4565b60ff84111561127857611277611059565b5b8360020a91508482111561128f5761128e611059565b5b506112f4565b5060208310610133831016604e8410600b84101617156112ca5782820a9050838111156112c5576112c4611059565b5b6112f4565b6112d784848460016111d5565b925090508184048111156112ee576112ed611059565b5b81810290505b9392505050565b600061130682610dff565b915061131183610f28565b925061133e7fffffffffffffffffffffffffffffffffffffffffffffffffffffffffffffffff8484611228565b905092915050565b7f4e487b7100000000000000000000000000000000000000000000000000000000600052601260045260246000fd5b600061138082610dff565b915061138b83610dff565b92508261139b5761139a611346565b5b828204905092915050565b60006113b182610dff565b91506113bc83610dff565b9250817fffffffffffffffffffffffffffffffffffffffffffffffffffffffffffffffff04831182151516156113f5576113f4611059565b5b828202905092915050565b600081905092915050565b50565b600061141b600083611400565b91506114268261140b565b600082019050919050565b600061143c8261140e565b9150819050919050565b7f4661696c656420746f2073656e64204574686572000000000000000000000000600082015250565b600061147c601483610cf5565b915061148782611446565b602082019050919050565b600060208201905081810360008301526114ab8161146f565b905091905056fea26469706673582212200ef24a31f007704775ff10dbd1a95c30484c9bdf0cb9304db4963a6a0b253ce864736f6c63430008100033",
  "linkReferences": {},
  "deployedLinkReferences": {}
}