{
  "_format": "hh-sol-artifact-1",
  "contractName": "Haven",
  "sourceName": "contracts/Haven.sol",
  "abi": [
    {
      "inputs": [],
      "stateMutability": "nonpayable",
      "type": "constructor"
    },
    {
      "anonymous": false,
      "inputs": [
        {
          "indexed": true,
          "internalType": "address",
          "name": "owner",
          "type": "address"
        },
        {
          "indexed": true,
          "internalType": "address",
          "name": "spender",
          "type": "address"
        },
        {
          "indexed": false,
          "internalType": "uint256",
          "name": "value",
          "type": "uint256"
        }
      ],
      "name": "Approval",
      "type": "event"
    },
    {
      "anonymous": false,
      "inputs": [
        {
          "indexed": true,
          "internalType": "address",
          "name": "from",
          "type": "address"
        },
        {
          "indexed": true,
          "internalType": "address",
          "name": "to",
          "type": "address"
        },
        {
          "indexed": false,
          "internalType": "uint256",
          "name": "value",
          "type": "uint256"
        }
      ],
      "name": "Transfer",
      "type": "event"
    },
    {
      "inputs": [
        {
          "internalType": "address",
          "name": "owner",
          "type": "address"
        },
        {
          "internalType": "address",
          "name": "spender",
          "type": "address"
        }
      ],
      "name": "allowance",
      "outputs": [
        {
          "internalType": "uint256",
          "name": "",
          "type": "uint256"
        }
      ],
      "stateMutability": "view",
      "type": "function"
    },
    {
      "inputs": [
        {
          "internalType": "address",
          "name": "spender",
          "type": "address"
        },
        {
          "internalType": "uint256",
          "name": "amount",
          "type": "uint256"
        }
      ],
      "name": "approve",
      "outputs": [
        {
          "internalType": "bool",
          "name": "",
          "type": "bool"
        }
      ],
      "stateMutability": "nonpayable",
      "type": "function"
    },
    {
      "inputs": [
        {
          "internalType": "address",
          "name": "account",
          "type": "address"
        }
      ],
      "name": "balanceOf",
      "outputs": [
        {
          "internalType": "uint256",
          "name": "",
          "type": "uint256"
        }
      ],
      "stateMutability": "view",
      "type": "function"
    },
    {
      "inputs": [],
      "name": "buyTokens",
      "outputs": [],
      "stateMutability": "payable",
      "type": "function"
    },
    {
      "inputs": [],
      "name": "decimals",
      "outputs": [
        {
          "internalType": "uint8",
          "name": "",
          "type": "uint8"
        }
      ],
      "stateMutability": "view",
      "type": "function"
    },
    {
      "inputs": [],
      "name": "name",
      "outputs": [
        {
          "internalType": "string",
          "name": "",
          "type": "string"
        }
      ],
      "stateMutability": "view",
      "type": "function"
    },
    {
      "inputs": [
        {
          "internalType": "uint256",
          "name": "tokenAmount",
          "type": "uint256"
        }
      ],
      "name": "sellTokens",
      "outputs": [],
      "stateMutability": "nonpayable",
      "type": "function"
    },
    {
      "inputs": [],
      "name": "symbol",
      "outputs": [
        {
          "internalType": "string",
          "name": "",
          "type": "string"
        }
      ],
      "stateMutability": "view",
      "type": "function"
    },
    {
      "inputs": [],
      "name": "totalSupply",
      "outputs": [
        {
          "internalType": "uint256",
          "name": "",
          "type": "uint256"
        }
      ],
      "stateMutability": "view",
      "type": "function"
    },
    {
      "inputs": [
        {
          "internalType": "address",
          "name": "recipient",
          "type": "address"
        },
        {
          "internalType": "uint256",
          "name": "amount",
          "type": "uint256"
        }
      ],
      "name": "transfer",
      "outputs": [
        {
          "internalType": "bool",
          "name": "",
          "type": "bool"
        }
      ],
      "stateMutability": "nonpayable",
      "type": "function"
    },
    {
      "inputs": [
        {
          "internalType": "address",
          "name": "sender",
          "type": "address"
        },
        {
          "internalType": "address",
          "name": "recipient",
          "type": "address"
        },
        {
          "internalType": "uint256",
          "name": "amount",
          "type": "uint256"
        }
      ],
      "name": "transferFrom",
      "outputs": [
        {
          "internalType": "bool",
          "name": "",
          "type": "bool"
        }
      ],
      "stateMutability": "nonpayable",
      "type": "function"
    }
  ],
  "bytecode": "0x608060405266038d7ea4c680006004553480156200001c57600080fd5b506040518060400160405280600581526020017f486176656e000000000000000000000000000000000000000000000000000000815250600090816200006391906200043e565b506040518060400160405280600381526020017f48564e000000000000000000000000000000000000000000000000000000000081525060019081620000aa91906200043e565b506012600260006101000a81548160ff021916908360ff160217905550600260009054906101000a900460ff16600a620000e59190620006b5565b6103e8620000f4919062000706565b6003600082825462000107919062000767565b92505081905550600354600560003373ffffffffffffffffffffffffffffffffffffffff1673ffffffffffffffffffffffffffffffffffffffff168152602001908152602001600020819055503373ffffffffffffffffffffffffffffffffffffffff16600073ffffffffffffffffffffffffffffffffffffffff167fddf252ad1be2c89b69c2b068fc378daa952ba7f163c4a11628f55a4df523b3ef600354604051620001b69190620007b3565b60405180910390a3620007d0565b600081519050919050565b7f4e487b7100000000000000000000000000000000000000000000000000000000600052604160045260246000fd5b7f4e487b7100000000000000000000000000000000000000000000000000000000600052602260045260246000fd5b600060028204905060018216806200024657607f821691505b6020821081036200025c576200025b620001fe565b5b50919050565b60008190508160005260206000209050919050565b60006020601f8301049050919050565b600082821b905092915050565b600060088302620002c67fffffffffffffffffffffffffffffffffffffffffffffffffffffffffffffffff8262000287565b620002d2868362000287565b95508019841693508086168417925050509392505050565b6000819050919050565b6000819050919050565b60006200031f620003196200031384620002ea565b620002f4565b620002ea565b9050919050565b6000819050919050565b6200033b83620002fe565b620003536200034a8262000326565b84845462000294565b825550505050565b600090565b6200036a6200035b565b6200037781848462000330565b505050565b5b818110156200039f576200039360008262000360565b6001810190506200037d565b5050565b601f821115620003ee57620003b88162000262565b620003c38462000277565b81016020851015620003d3578190505b620003eb620003e28562000277565b8301826200037c565b50505b505050565b600082821c905092915050565b60006200041360001984600802620003f3565b1980831691505092915050565b60006200042e838362000400565b9150826002028217905092915050565b6200044982620001c4565b67ffffffffffffffff811115620004655762000464620001cf565b5b6200047182546200022d565b6200047e828285620003a3565b600060209050601f831160018114620004b65760008415620004a1578287015190505b620004ad858262000420565b8655506200051d565b601f198416620004c68662000262565b60005b82811015620004f057848901518255600182019150602085019450602081019050620004c9565b868310156200051057848901516200050c601f89168262000400565b8355505b6001600288020188555050505b505050505050565b7f4e487b7100000000000000000000000000000000000000000000000000000000600052601160045260246000fd5b60008160011c9050919050565b6000808291508390505b6001851115620005b3578086048111156200058b576200058a62000525565b5b60018516156200059b5780820291505b8081029050620005ab8562000554565b94506200056b565b94509492505050565b600082620005ce5760019050620006a1565b81620005de5760009050620006a1565b8160018114620005f75760028114620006025762000638565b6001915050620006a1565b60ff84111562000617576200061662000525565b5b8360020a91508482111562000631576200063062000525565b5b50620006a1565b5060208310610133831016604e8410600b8410161715620006725782820a9050838111156200066c576200066b62000525565b5b620006a1565b62000681848484600162000561565b925090508184048111156200069b576200069a62000525565b5b81810290505b9392505050565b600060ff82169050919050565b6000620006c282620002ea565b9150620006cf83620006a8565b9250620006fe7fffffffffffffffffffffffffffffffffffffffffffffffffffffffffffffffff8484620005bc565b905092915050565b60006200071382620002ea565b91506200072083620002ea565b9250817fffffffffffffffffffffffffffffffffffffffffffffffffffffffffffffffff04831182151516156200075c576200075b62000525565b5b828202905092915050565b60006200077482620002ea565b91506200078183620002ea565b92508282019050808211156200079c576200079b62000525565b5b92915050565b620007ad81620002ea565b82525050565b6000602082019050620007ca6000830184620007a2565b92915050565b6114d980620007e06000396000f3fe60806040526004361061009c5760003560e01c80636c11bcd3116100645780636c11bcd31461019c57806370a08231146101c557806395d89b4114610202578063a9059cbb1461022d578063d0febe4c1461026a578063dd62ed3e146102745761009c565b806306fdde03146100a1578063095ea7b3146100cc57806318160ddd1461010957806323b872dd14610134578063313ce56714610171575b600080fd5b3480156100ad57600080fd5b506100b66102b1565b6040516100c39190610cff565b60405180910390f35b3480156100d857600080fd5b506100f360048036038101906100ee9190610dba565b61033f565b6040516101009190610e15565b60405180910390f35b34801561011557600080fd5b5061011e610431565b60405161012b9190610e3f565b60405180910390f35b34801561014057600080fd5b5061015b60048036038101906101569190610e5a565b61043b565b6040516101689190610e15565b60405180910390f35b34801561017d57600080fd5b506101866105ec565b6040516101939190610ec9565b60405180910390f35b3480156101a857600080fd5b506101c360048036038101906101be9190610ee4565b6105ff565b005b3480156101d157600080fd5b506101ec60048036038101906101e79190610f11565b61085c565b6040516101f99190610e3f565b60405180910390f35b34801561020e57600080fd5b506102176108a5565b6040516102249190610cff565b60405180910390f35b34801561023957600080fd5b50610254600480360381019061024f9190610dba565b610933565b6040516102619190610e15565b60405180910390f35b610272610a50565b005b34801561028057600080fd5b5061029b60048036038101906102969190610f3e565b610be8565b6040516102a89190610e3f565b60405180910390f35b600080546102be90610fad565b80601f01602080910402602001604051908101604052809291908181526020018280546102ea90610fad565b80156103375780601f1061030c57610100808354040283529160200191610337565b820191906000526020600020905b81548152906001019060200180831161031a57829003601f168201915b505050505081565b600081600660003373ffffffffffffffffffffffffffffffffffffffff1673ffffffffffffffffffffffffffffffffffffffff16815260200190815260200160002060008573ffffffffffffffffffffffffffffffffffffffff1673ffffffffffffffffffffffffffffffffffffffff168152602001908152602001600020819055508273ffffffffffffffffffffffffffffffffffffffff163373ffffffffffffffffffffffffffffffffffffffff167f8c5be1e5ebec7d5bd14f71427d1e84f3dd0314c0f7b2291e5b200ac8c7c3b9258460405161041f9190610e3f565b60405180910390a36001905092915050565b6000600354905090565b600081600660008673ffffffffffffffffffffffffffffffffffffffff1673ffffffffffffffffffffffffffffffffffffffff16815260200190815260200160002060003373ffffffffffffffffffffffffffffffffffffffff1673ffffffffffffffffffffffffffffffffffffffff16815260200190815260200160002060008282546104c9919061100d565b9250508190555081600560008673ffffffffffffffffffffffffffffffffffffffff1673ffffffffffffffffffffffffffffffffffffffff168152602001908152602001600020600082825461051f919061100d565b9250508190555081600560008573ffffffffffffffffffffffffffffffffffffffff1673ffffffffffffffffffffffffffffffffffffffff16815260200190815260200160002060008282546105759190611041565b925050819055508273ffffffffffffffffffffffffffffffffffffffff168473ffffffffffffffffffffffffffffffffffffffff167fddf252ad1be2c89b69c2b068fc378daa952ba7f163c4a11628f55a4df523b3ef846040516105d99190610e3f565b60405180910390a3600190509392505050565b600260009054906101000a900460ff1681565b60008111610642576040517f08c379a0000000000000000000000000000000000000000000000000000000008152600401610639906110c1565b60405180910390fd5b80600560003373ffffffffffffffffffffffffffffffffffffffff1673ffffffffffffffffffffffffffffffffffffffff1681526020019081526020016000205410156106c4576040517f08c379a00000000000000000000000000000000000000000000000000000000081526004016106bb9061112d565b60405180910390fd5b6000600454826106d4919061114d565b905081600560003373ffffffffffffffffffffffffffffffffffffffff1673ffffffffffffffffffffffffffffffffffffffff1681526020019081526020016000206000828254610725919061100d565b92505081905550816003600082825461073e919061100d565b9250508190555060003373ffffffffffffffffffffffffffffffffffffffff168260405161076b906111d8565b60006040518083038185875af1925050503d80600081146107a8576040519150601f19603f3d011682016040523d82523d6000602084013e6107ad565b606091505b50509050806107f1576040517f08c379a00000000000000000000000000000000000000000000000000000000081526004016107e890611239565b60405180910390fd5b600073ffffffffffffffffffffffffffffffffffffffff163373ffffffffffffffffffffffffffffffffffffffff167fddf252ad1be2c89b69c2b068fc378daa952ba7f163c4a11628f55a4df523b3ef8560405161084f9190610e3f565b60405180910390a3505050565b6000600560008373ffffffffffffffffffffffffffffffffffffffff1673ffffffffffffffffffffffffffffffffffffffff168152602001908152602001600020549050919050565b600180546108b290610fad565b80601f01602080910402602001604051908101604052809291908181526020018280546108de90610fad565b801561092b5780601f106109005761010080835404028352916020019161092b565b820191906000526020600020905b81548152906001019060200180831161090e57829003601f168201915b505050505081565b600081600560003373ffffffffffffffffffffffffffffffffffffffff1673ffffffffffffffffffffffffffffffffffffffff1681526020019081526020016000206000828254610984919061100d565b9250508190555081600560008573ffffffffffffffffffffffffffffffffffffffff1673ffffffffffffffffffffffffffffffffffffffff16815260200190815260200160002060008282546109da9190611041565b925050819055508273ffffffffffffffffffffffffffffffffffffffff163373ffffffffffffffffffffffffffffffffffffffff167fddf252ad1be2c89b69c2b068fc378daa952ba7f163c4a11628f55a4df523b3ef84604051610a3e9190610e3f565b60405180910390a36001905092915050565b600060045411610a95576040517f08c379a0000000000000000000000000000000000000000000000000000000008152600401610a8c906112a5565b60405180910390fd5b60003411610ad8576040517f08c379a0000000000000000000000000000000000000000000000000000000008152600401610acf906110c1565b60405180910390fd5b6000600454600260009054906101000a900460ff16600a610af991906113f8565b34610b04919061114d565b610b0e9190611472565b905080600560003373ffffffffffffffffffffffffffffffffffffffff1673ffffffffffffffffffffffffffffffffffffffff1681526020019081526020016000206000828254610b5f9190611041565b925050819055508060036000828254610b789190611041565b925050819055503373ffffffffffffffffffffffffffffffffffffffff16600073ffffffffffffffffffffffffffffffffffffffff167fddf252ad1be2c89b69c2b068fc378daa952ba7f163c4a11628f55a4df523b3ef83604051610bdd9190610e3f565b60405180910390a350565b6000600660008473ffffffffffffffffffffffffffffffffffffffff1673ffffffffffffffffffffffffffffffffffffffff16815260200190815260200160002060008373ffffffffffffffffffffffffffffffffffffffff1673ffffffffffffffffffffffffffffffffffffffff16815260200190815260200160002054905092915050565b600081519050919050565b600082825260208201905092915050565b60005b83811015610ca9578082015181840152602081019050610c8e565b60008484015250505050565b6000601f19601f8301169050919050565b6000610cd182610c6f565b610cdb8185610c7a565b9350610ceb818560208601610c8b565b610cf481610cb5565b840191505092915050565b60006020820190508181036000830152610d198184610cc6565b905092915050565b600080fd5b600073ffffffffffffffffffffffffffffffffffffffff82169050919050565b6000610d5182610d26565b9050919050565b610d6181610d46565b8114610d6c57600080fd5b50565b600081359050610d7e81610d58565b92915050565b6000819050919050565b610d9781610d84565b8114610da257600080fd5b50565b600081359050610db481610d8e565b92915050565b60008060408385031215610dd157610dd0610d21565b5b6000610ddf85828601610d6f565b9250506020610df085828601610da5565b9150509250929050565b60008115159050919050565b610e0f81610dfa565b82525050565b6000602082019050610e2a6000830184610e06565b92915050565b610e3981610d84565b82525050565b6000602082019050610e546000830184610e30565b92915050565b600080600060608486031215610e7357610e72610d21565b5b6000610e8186828701610d6f565b9350506020610e9286828701610d6f565b9250506040610ea386828701610da5565b9150509250925092565b600060ff82169050919050565b610ec381610ead565b82525050565b6000602082019050610ede6000830184610eba565b92915050565b600060208284031215610efa57610ef9610d21565b5b6000610f0884828501610da5565b91505092915050565b600060208284031215610f2757610f26610d21565b5b6000610f3584828501610d6f565b91505092915050565b60008060408385031215610f5557610f54610d21565b5b6000610f6385828601610d6f565b9250506020610f7485828601610d6f565b9150509250929050565b7f4e487b7100000000000000000000000000000000000000000000000000000000600052602260045260246000fd5b60006002820490506001821680610fc557607f821691505b602082108103610fd857610fd7610f7e565b5b50919050565b7f4e487b7100000000000000000000000000000000000000000000000000000000600052601160045260246000fd5b600061101882610d84565b915061102383610d84565b925082820390508181111561103b5761103a610fde565b5b92915050565b600061104c82610d84565b915061105783610d84565b925082820190508082111561106f5761106e610fde565b5b92915050565b7f416d6f756e74206d7573742062652067726561746572207468616e2030000000600082015250565b60006110ab601d83610c7a565b91506110b682611075565b602082019050919050565b600060208201905081810360008301526110da8161109e565b9050919050565b7f496e73756666696369656e742062616c616e6365000000000000000000000000600082015250565b6000611117601483610c7a565b9150611122826110e1565b602082019050919050565b600060208201905081810360008301526111468161110a565b9050919050565b600061115882610d84565b915061116383610d84565b9250817fffffffffffffffffffffffffffffffffffffffffffffffffffffffffffffffff048311821515161561119c5761119b610fde565b5b828202905092915050565b600081905092915050565b50565b60006111c26000836111a7565b91506111cd826111b2565b600082019050919050565b60006111e3826111b5565b9150819050919050565b7f4661696c656420746f2073656e64204574686572000000000000000000000000600082015250565b6000611223601483610c7a565b915061122e826111ed565b602082019050919050565b6000602082019050818103600083015261125281611216565b9050919050565b7f546f6b656e207072696365206e6f742073657400000000000000000000000000600082015250565b600061128f601383610c7a565b915061129a82611259565b602082019050919050565b600060208201905081810360008301526112be81611282565b9050919050565b60008160011c9050919050565b6000808291508390505b600185111561131c578086048111156112f8576112f7610fde565b5b60018516156113075780820291505b8081029050611315856112c5565b94506112dc565b94509492505050565b60008261133557600190506113f1565b8161134357600090506113f1565b8160018114611359576002811461136357611392565b60019150506113f1565b60ff84111561137557611374610fde565b5b8360020a91508482111561138c5761138b610fde565b5b506113f1565b5060208310610133831016604e8410600b84101617156113c75782820a9050838111156113c2576113c1610fde565b5b6113f1565b6113d484848460016112d2565b925090508184048111156113eb576113ea610fde565b5b81810290505b9392505050565b600061140382610d84565b915061140e83610ead565b925061143b7fffffffffffffffffffffffffffffffffffffffffffffffffffffffffffffffff8484611325565b905092915050565b7f4e487b7100000000000000000000000000000000000000000000000000000000600052601260045260246000fd5b600061147d82610d84565b915061148883610d84565b92508261149857611497611443565b5b82820490509291505056fea264697066735822122067e9f3659e0562af63ba474dd596fc6863aaf8ac43a052b182897cb1073a56ff64736f6c63430008100033",
  "linkReferences": {},
  "deployedLinkReferences": {}
}