{
  "_format": "hh-sol-artifact-1",
  "contractName": "TutorialHaven",
  "sourceName": "contracts/TutorialHaven.sol",
  "abi": [
    {
      "inputs": [
        {
          "internalType": "address",
          "name": "_tokenContractAddress",
          "type": "address"
        }
      ],
      "stateMutability": "nonpayable",
      "type": "constructor"
    },
    {
      "anonymous": false,
      "inputs": [
        {
          "indexed": true,
          "internalType": "address",
          "name": "owner",
          "type": "address"
        },
        {
          "indexed": true,
          "internalType": "address",
          "name": "approved",
          "type": "address"
        },
        {
          "indexed": true,
          "internalType": "uint256",
          "name": "tokenId",
          "type": "uint256"
        }
      ],
      "name": "Approval",
      "type": "event"
    },
    {
      "anonymous": false,
      "inputs": [
        {
          "indexed": true,
          "internalType": "address",
          "name": "owner",
          "type": "address"
        },
        {
          "indexed": true,
          "internalType": "address",
          "name": "operator",
          "type": "address"
        },
        {
          "indexed": false,
          "internalType": "bool",
          "name": "approved",
          "type": "bool"
        }
      ],
      "name": "ApprovalForAll",
      "type": "event"
    },
    {
      "anonymous": false,
      "inputs": [
        {
          "indexed": true,
          "internalType": "address",
          "name": "from",
          "type": "address"
        },
        {
          "indexed": true,
          "internalType": "address",
          "name": "to",
          "type": "address"
        },
        {
          "indexed": true,
          "internalType": "uint256",
          "name": "tokenId",
          "type": "uint256"
        }
      ],
      "name": "Transfer",
      "type": "event"
    },
    {
      "anonymous": false,
      "inputs": [
        {
          "indexed": true,
          "internalType": "uint256",
          "name": "tokenId",
          "type": "uint256"
        }
      ],
      "name": "VideoUploaded",
      "type": "event"
    },
    {
      "inputs": [
        {
          "internalType": "uint256",
          "name": "",
          "type": "uint256"
        },
        {
          "internalType": "uint256",
          "name": "",
          "type": "uint256"
        }
      ],
      "name": "access",
      "outputs": [
        {
          "internalType": "address",
          "name": "",
          "type": "address"
        }
      ],
      "stateMutability": "view",
      "type": "function"
    },
    {
      "inputs": [
        {
          "internalType": "address",
          "name": "to",
          "type": "address"
        },
        {
          "internalType": "uint256",
          "name": "tokenId",
          "type": "uint256"
        }
      ],
      "name": "approve",
      "outputs": [],
      "stateMutability": "nonpayable",
      "type": "function"
    },
    {
      "inputs": [
        {
          "internalType": "address",
          "name": "owner",
          "type": "address"
        }
      ],
      "name": "balanceOf",
      "outputs": [
        {
          "internalType": "uint256",
          "name": "",
          "type": "uint256"
        }
      ],
      "stateMutability": "view",
      "type": "function"
    },
    {
      "inputs": [
        {
          "internalType": "uint256",
          "name": "_id",
          "type": "uint256"
        }
      ],
      "name": "buyAccess",
      "outputs": [],
      "stateMutability": "nonpayable",
      "type": "function"
    },
    {
      "inputs": [
        {
          "internalType": "uint256",
          "name": "_id",
          "type": "uint256"
        }
      ],
      "name": "checkAccess",
      "outputs": [
        {
          "internalType": "bool",
          "name": "",
          "type": "bool"
        }
      ],
      "stateMutability": "view",
      "type": "function"
    },
    {
      "inputs": [
        {
          "internalType": "uint256",
          "name": "tokenId",
          "type": "uint256"
        }
      ],
      "name": "getApproved",
      "outputs": [
        {
          "internalType": "address",
          "name": "",
          "type": "address"
        }
      ],
      "stateMutability": "view",
      "type": "function"
    },
    {
      "inputs": [
        {
          "internalType": "address",
          "name": "owner",
          "type": "address"
        },
        {
          "internalType": "address",
          "name": "operator",
          "type": "address"
        }
      ],
      "name": "isApprovedForAll",
      "outputs": [
        {
          "internalType": "bool",
          "name": "",
          "type": "bool"
        }
      ],
      "stateMutability": "view",
      "type": "function"
    },
    {
      "inputs": [],
      "name": "name",
      "outputs": [
        {
          "internalType": "string",
          "name": "",
          "type": "string"
        }
      ],
      "stateMutability": "view",
      "type": "function"
    },
    {
      "inputs": [
        {
          "internalType": "uint256",
          "name": "tokenId",
          "type": "uint256"
        }
      ],
      "name": "ownerOf",
      "outputs": [
        {
          "internalType": "address",
          "name": "",
          "type": "address"
        }
      ],
      "stateMutability": "view",
      "type": "function"
    },
    {
      "inputs": [
        {
          "internalType": "address",
          "name": "from",
          "type": "address"
        },
        {
          "internalType": "address",
          "name": "to",
          "type": "address"
        },
        {
          "internalType": "uint256",
          "name": "tokenId",
          "type": "uint256"
        }
      ],
      "name": "safeTransferFrom",
      "outputs": [],
      "stateMutability": "nonpayable",
      "type": "function"
    },
    {
      "inputs": [
        {
          "internalType": "address",
          "name": "from",
          "type": "address"
        },
        {
          "internalType": "address",
          "name": "to",
          "type": "address"
        },
        {
          "internalType": "uint256",
          "name": "tokenId",
          "type": "uint256"
        },
        {
          "internalType": "bytes",
          "name": "data",
          "type": "bytes"
        }
      ],
      "name": "safeTransferFrom",
      "outputs": [],
      "stateMutability": "nonpayable",
      "type": "function"
    },
    {
      "inputs": [
        {
          "internalType": "address",
          "name": "operator",
          "type": "address"
        },
        {
          "internalType": "bool",
          "name": "approved",
          "type": "bool"
        }
      ],
      "name": "setApprovalForAll",
      "outputs": [],
      "stateMutability": "nonpayable",
      "type": "function"
    },
    {
      "inputs": [
        {
          "internalType": "bytes4",
          "name": "interfaceId",
          "type": "bytes4"
        }
      ],
      "name": "supportsInterface",
      "outputs": [
        {
          "internalType": "bool",
          "name": "",
          "type": "bool"
        }
      ],
      "stateMutability": "view",
      "type": "function"
    },
    {
      "inputs": [],
      "name": "symbol",
      "outputs": [
        {
          "internalType": "string",
          "name": "",
          "type": "string"
        }
      ],
      "stateMutability": "view",
      "type": "function"
    },
    {
      "inputs": [],
      "name": "tokenContract",
      "outputs": [
        {
          "internalType": "contract Haven",
          "name": "",
          "type": "address"
        }
      ],
      "stateMutability": "view",
      "type": "function"
    },
    {
      "inputs": [
        {
          "internalType": "uint256",
          "name": "tokenId",
          "type": "uint256"
        }
      ],
      "name": "tokenURI",
      "outputs": [
        {
          "internalType": "string",
          "name": "",
          "type": "string"
        }
      ],
      "stateMutability": "view",
      "type": "function"
    },
    {
      "inputs": [
        {
          "internalType": "address",
          "name": "from",
          "type": "address"
        },
        {
          "internalType": "address",
          "name": "to",
          "type": "address"
        },
        {
          "internalType": "uint256",
          "name": "tokenId",
          "type": "uint256"
        }
      ],
      "name": "transferFrom",
      "outputs": [],
      "stateMutability": "nonpayable",
      "type": "function"
    },
    {
      "inputs": [
        {
          "components": [
            {
              "internalType": "string",
              "name": "title",
              "type": "string"
            },
            {
              "internalType": "string",
              "name": "description",
              "type": "string"
            },
            {
              "internalType": "string",
              "name": "url",
              "type": "string"
            },
            {
              "internalType": "string",
              "name": "thumbnail",
              "type": "string"
            },
            {
              "internalType": "string",
              "name": "author",
              "type": "string"
            },
            {
              "internalType": "address",
              "name": "paymentAddress",
              "type": "address"
            },
            {
              "internalType": "string",
              "name": "access",
              "type": "string"
            },
            {
              "internalType": "uint256",
              "name": "cost",
              "type": "uint256"
            }
          ],
          "internalType": "struct TutorialHaven.VideoData",
          "name": "data",
          "type": "tuple"
        }
      ],
      "name": "uploadVideo",
      "outputs": [
        {
          "internalType": "uint256",
          "name": "",
          "type": "uint256"
        }
      ],
      "stateMutability": "nonpayable",
      "type": "function"
    },
    {
      "inputs": [
        {
          "internalType": "uint256",
          "name": "",
          "type": "uint256"
        }
      ],
      "name": "videoMetadata",
      "outputs": [
        {
          "internalType": "string",
          "name": "title",
          "type": "string"
        },
        {
          "internalType": "string",
          "name": "description",
          "type": "string"
        },
        {
          "internalType": "string",
          "name": "url",
          "type": "string"
        },
        {
          "internalType": "string",
          "name": "thumbnail",
          "type": "string"
        },
        {
          "internalType": "string",
          "name": "author",
          "type": "string"
        },
        {
          "internalType": "address",
          "name": "paymentAddress",
          "type": "address"
        },
        {
          "internalType": "string",
          "name": "access",
          "type": "string"
        },
        {
          "internalType": "uint256",
          "name": "cost",
          "type": "uint256"
        }
      ],
      "stateMutability": "view",
      "type": "function"
    }
  ],
  "bytecode": "0x60806040523480156200001157600080fd5b5060405162003d8238038062003d8283398181016040528101906200003791906200017b565b6040518060400160405280600e81526020017f5475746f7269616c20486176656e0000000000000000000000000000000000008152506040518060400160405280600381526020017f54484e00000000000000000000000000000000000000000000000000000000008152508160009081620000b4919062000427565b508060019081620000c6919062000427565b50505080600660006101000a81548173ffffffffffffffffffffffffffffffffffffffff021916908373ffffffffffffffffffffffffffffffffffffffff160217905550506200050e565b600080fd5b600073ffffffffffffffffffffffffffffffffffffffff82169050919050565b6000620001438262000116565b9050919050565b620001558162000136565b81146200016157600080fd5b50565b60008151905062000175816200014a565b92915050565b60006020828403121562000194576200019362000111565b5b6000620001a48482850162000164565b91505092915050565b600081519050919050565b7f4e487b7100000000000000000000000000000000000000000000000000000000600052604160045260246000fd5b7f4e487b7100000000000000000000000000000000000000000000000000000000600052602260045260246000fd5b600060028204905060018216806200022f57607f821691505b602082108103620002455762000244620001e7565b5b50919050565b60008190508160005260206000209050919050565b60006020601f8301049050919050565b600082821b905092915050565b600060088302620002af7fffffffffffffffffffffffffffffffffffffffffffffffffffffffffffffffff8262000270565b620002bb868362000270565b95508019841693508086168417925050509392505050565b6000819050919050565b6000819050919050565b60006200030862000302620002fc84620002d3565b620002dd565b620002d3565b9050919050565b6000819050919050565b6200032483620002e7565b6200033c62000333826200030f565b8484546200027d565b825550505050565b600090565b6200035362000344565b6200036081848462000319565b505050565b5b8181101562000388576200037c60008262000349565b60018101905062000366565b5050565b601f821115620003d757620003a1816200024b565b620003ac8462000260565b81016020851015620003bc578190505b620003d4620003cb8562000260565b83018262000365565b50505b505050565b600082821c905092915050565b6000620003fc60001984600802620003dc565b1980831691505092915050565b6000620004178383620003e9565b9150826002028217905092915050565b6200043282620001ad565b67ffffffffffffffff8111156200044e576200044d620001b8565b5b6200045a825462000216565b620004678282856200038c565b600060209050601f8311600181146200049f57600084156200048a578287015190505b62000496858262000409565b86555062000506565b601f198416620004af866200024b565b60005b82811015620004d957848901518255600182019150602085019450602081019050620004b2565b86831015620004f95784890151620004f5601f891682620003e9565b8355505b6001600288020188555050505b505050505050565b613864806200051e6000396000f3fe608060405234801561001057600080fd5b50600436106101215760003560e01c80636e583cac116100ad578063a449d45a11610071578063a449d45a1461032c578063b88d4fde14610363578063c87b56dd1461037f578063e985e9c5146103af578063eb3a3489146103df57610121565b80636e583cac1461026257806370a082311461029257806395d89b41146102c2578063992c8493146102e0578063a22cb4651461031057610121565b806323b872dd116100f457806323b872dd146101c057806342842e0e146101dc57806350a1a264146101f857806355a373d6146102145780636352211e1461023257610121565b806301ffc9a71461012657806306fdde0314610156578063081812fc14610174578063095ea7b3146101a4575b600080fd5b610140600480360381019061013b91906123b9565b61040f565b60405161014d9190612401565b60405180910390f35b61015e6104f1565b60405161016b91906124ac565b60405180910390f35b61018e60048036038101906101899190612504565b610583565b60405161019b9190612572565b60405180910390f35b6101be60048036038101906101b991906125b9565b6105c9565b005b6101da60048036038101906101d591906125f9565b6106e0565b005b6101f660048036038101906101f191906125f9565b610740565b005b610212600480360381019061020d9190612504565b610760565b005b61021c6109b2565b60405161022991906126ab565b60405180910390f35b61024c60048036038101906102479190612504565b6109d8565b6040516102599190612572565b60405180910390f35b61027c60048036038101906102779190612504565b610a5e565b6040516102899190612401565b60405180910390f35b6102ac60048036038101906102a791906126c6565b610b9a565b6040516102b99190612702565b60405180910390f35b6102ca610c51565b6040516102d791906124ac565b60405180910390f35b6102fa60048036038101906102f5919061271d565b610ce3565b6040516103079190612572565b60405180910390f35b61032a60048036038101906103259190612789565b610d31565b005b61034660048036038101906103419190612504565b610d47565b60405161035a9897969594939291906127c9565b60405180910390f35b61037d600480360381019061037891906129a6565b6110df565b005b61039960048036038101906103949190612504565b611141565b6040516103a691906124ac565b60405180910390f35b6103c960048036038101906103c49190612a29565b6111a9565b6040516103d69190612401565b60405180910390f35b6103f960048036038101906103f49190612a8e565b61123d565b6040516104069190612702565b60405180910390f35b60007f80ac58cd000000000000000000000000000000000000000000000000000000007bffffffffffffffffffffffffffffffffffffffffffffffffffffffff1916827bffffffffffffffffffffffffffffffffffffffffffffffffffffffff191614806104da57507f5b5e139f000000000000000000000000000000000000000000000000000000007bffffffffffffffffffffffffffffffffffffffffffffffffffffffff1916827bffffffffffffffffffffffffffffffffffffffffffffffffffffffff1916145b806104ea57506104e9826115d4565b5b9050919050565b60606000805461050090612b06565b80601f016020809104026020016040519081016040528092919081815260200182805461052c90612b06565b80156105795780601f1061054e57610100808354040283529160200191610579565b820191906000526020600020905b81548152906001019060200180831161055c57829003601f168201915b5050505050905090565b600061058e8261163e565b6004600083815260200190815260200160002060009054906101000a900473ffffffffffffffffffffffffffffffffffffffff169050919050565b60006105d4826109d8565b90508073ffffffffffffffffffffffffffffffffffffffff168373ffffffffffffffffffffffffffffffffffffffff1603610644576040517f08c379a000000000000000000000000000000000000000000000000000000000815260040161063b90612ba9565b60405180910390fd5b8073ffffffffffffffffffffffffffffffffffffffff16610663611689565b73ffffffffffffffffffffffffffffffffffffffff16148061069257506106918161068c611689565b6111a9565b5b6106d1576040517f08c379a00000000000000000000000000000000000000000000000000000000081526004016106c890612c3b565b60405180910390fd5b6106db8383611691565b505050565b6106f16106eb611689565b8261174a565b610730576040517f08c379a000000000000000000000000000000000000000000000000000000000815260040161072790612ccd565b60405180910390fd5b61073b8383836117df565b505050565b61075b838383604051806020016040528060008152506110df565b505050565b60006008600083815260200190815260200160002060070154905060006008600084815260200190815260200160002060050160009054906101000a900473ffffffffffffffffffffffffffffffffffffffff16905081600660009054906101000a900473ffffffffffffffffffffffffffffffffffffffff1673ffffffffffffffffffffffffffffffffffffffff1663dd62ed3e33306040518363ffffffff1660e01b8152600401610814929190612ced565b602060405180830381865afa158015610831573d6000803e3d6000fd5b505050506040513d601f19601f820116820180604052508101906108559190612d2b565b1015610896576040517f08c379a000000000000000000000000000000000000000000000000000000000815260040161088d90612da4565b60405180910390fd5b600660009054906101000a900473ffffffffffffffffffffffffffffffffffffffff1673ffffffffffffffffffffffffffffffffffffffff166323b872dd3383856040518463ffffffff1660e01b81526004016108f593929190612dc4565b6020604051808303816000875af1158015610914573d6000803e3d6000fd5b505050506040513d601f19601f820116820180604052508101906109389190612e10565b5060096000848152602001908152602001600020339080600181540180825580915050600190039060005260206000200160009091909190916101000a81548173ffffffffffffffffffffffffffffffffffffffff021916908373ffffffffffffffffffffffffffffffffffffffff160217905550505050565b600660009054906101000a900473ffffffffffffffffffffffffffffffffffffffff1681565b6000806109e483611ad8565b9050600073ffffffffffffffffffffffffffffffffffffffff168173ffffffffffffffffffffffffffffffffffffffff1603610a55576040517f08c379a0000000000000000000000000000000000000000000000000000000008152600401610a4c90612e89565b60405180910390fd5b80915050919050565b6000604051602001610a6f90612f00565b6040516020818303038152906040528051906020012060086000848152602001908152602001600020600601604051602001610aab9190612fad565b6040516020818303038152906040528051906020012003610acf5760019050610b95565b60005b6009600084815260200190815260200160002080549050811015610b8f573373ffffffffffffffffffffffffffffffffffffffff16600960008581526020019081526020016000208281548110610b2c57610b2b612fc4565b5b9060005260206000200160009054906101000a900473ffffffffffffffffffffffffffffffffffffffff1673ffffffffffffffffffffffffffffffffffffffff1603610b7c576001915050610b95565b8080610b8790613022565b915050610ad2565b50600090505b919050565b60008073ffffffffffffffffffffffffffffffffffffffff168273ffffffffffffffffffffffffffffffffffffffff1603610c0a576040517f08c379a0000000000000000000000000000000000000000000000000000000008152600401610c01906130dc565b60405180910390fd5b600360008373ffffffffffffffffffffffffffffffffffffffff1673ffffffffffffffffffffffffffffffffffffffff168152602001908152602001600020549050919050565b606060018054610c6090612b06565b80601f0160208091040260200160405190810160405280929190818152602001828054610c8c90612b06565b8015610cd95780601f10610cae57610100808354040283529160200191610cd9565b820191906000526020600020905b815481529060010190602001808311610cbc57829003601f168201915b5050505050905090565b60096020528160005260406000208181548110610cff57600080fd5b906000526020600020016000915091509054906101000a900473ffffffffffffffffffffffffffffffffffffffff1681565b610d43610d3c611689565b8383611b15565b5050565b6008602052806000526040600020600091509050806000018054610d6a90612b06565b80601f0160208091040260200160405190810160405280929190818152602001828054610d9690612b06565b8015610de35780601f10610db857610100808354040283529160200191610de3565b820191906000526020600020905b815481529060010190602001808311610dc657829003601f168201915b505050505090806001018054610df890612b06565b80601f0160208091040260200160405190810160405280929190818152602001828054610e2490612b06565b8015610e715780601f10610e4657610100808354040283529160200191610e71565b820191906000526020600020905b815481529060010190602001808311610e5457829003601f168201915b505050505090806002018054610e8690612b06565b80601f0160208091040260200160405190810160405280929190818152602001828054610eb290612b06565b8015610eff5780601f10610ed457610100808354040283529160200191610eff565b820191906000526020600020905b815481529060010190602001808311610ee257829003601f168201915b505050505090806003018054610f1490612b06565b80601f0160208091040260200160405190810160405280929190818152602001828054610f4090612b06565b8015610f8d5780601f10610f6257610100808354040283529160200191610f8d565b820191906000526020600020905b815481529060010190602001808311610f7057829003601f168201915b505050505090806004018054610fa290612b06565b80601f0160208091040260200160405190810160405280929190818152602001828054610fce90612b06565b801561101b5780601f10610ff05761010080835404028352916020019161101b565b820191906000526020600020905b815481529060010190602001808311610ffe57829003601f168201915b5050505050908060050160009054906101000a900473ffffffffffffffffffffffffffffffffffffffff169080600601805461105690612b06565b80601f016020809104026020016040519081016040528092919081815260200182805461108290612b06565b80156110cf5780601f106110a4576101008083540402835291602001916110cf565b820191906000526020600020905b8154815290600101906020018083116110b257829003601f168201915b5050505050908060070154905088565b6110f06110ea611689565b8361174a565b61112f576040517f08c379a000000000000000000000000000000000000000000000000000000000815260040161112690612ccd565b60405180910390fd5b61113b84848484611c81565b50505050565b606061114c8261163e565b6000611156611cdd565b9050600081511161117657604051806020016040528060008152506111a1565b8061118084611cf4565b60405160200161119192919061312d565b6040516020818303038152906040525b915050919050565b6000600560008473ffffffffffffffffffffffffffffffffffffffff1673ffffffffffffffffffffffffffffffffffffffff16815260200190815260200160002060008373ffffffffffffffffffffffffffffffffffffffff1673ffffffffffffffffffffffffffffffffffffffff16815260200190815260200160002060009054906101000a900460ff16905092915050565b60006112496007611dc2565b60006112556007611dd8565b90506112613382611de6565b60405180610100016040528084806000019061127d9190613160565b8080601f016020809104026020016040519081016040528093929190818152602001838380828437600081840152601f19601f8201169050808301925050505050505081526020018480602001906112d59190613160565b8080601f016020809104026020016040519081016040528093929190818152602001838380828437600081840152601f19601f82011690508083019250505050505050815260200184806040019061132d9190613160565b8080601f016020809104026020016040519081016040528093929190818152602001838380828437600081840152601f19601f8201169050808301925050505050505081526020018480606001906113859190613160565b8080601f016020809104026020016040519081016040528093929190818152602001838380828437600081840152601f19601f8201169050808301925050505050505081526020018480608001906113dd9190613160565b8080601f016020809104026020016040519081016040528093929190818152602001838380828437600081840152601f19601f8201169050808301925050505050505081526020018460a001602081019061143891906126c6565b73ffffffffffffffffffffffffffffffffffffffff168152602001848060c001906114639190613160565b8080601f016020809104026020016040519081016040528093929190818152602001838380828437600081840152601f19601f8201169050808301925050505050505081526020018460e001358152506008600083815260200190815260200160002060008201518160000190816114db9190613350565b5060208201518160010190816114f19190613350565b5060408201518160020190816115079190613350565b50606082015181600301908161151d9190613350565b5060808201518160040190816115339190613350565b5060a08201518160050160006101000a81548173ffffffffffffffffffffffffffffffffffffffff021916908373ffffffffffffffffffffffffffffffffffffffff16021790555060c08201518160060190816115909190613350565b5060e08201518160070155905050807fb877fdb9b85387f33c239039316c2d7e95a08b2bcc529faec843cb3801ea41da60405160405180910390a280915050919050565b60007f01ffc9a7000000000000000000000000000000000000000000000000000000007bffffffffffffffffffffffffffffffffffffffffffffffffffffffff1916827bffffffffffffffffffffffffffffffffffffffffffffffffffffffff1916149050919050565b61164781612003565b611686576040517f08c379a000000000000000000000000000000000000000000000000000000000815260040161167d90612e89565b60405180910390fd5b50565b600033905090565b816004600083815260200190815260200160002060006101000a81548173ffffffffffffffffffffffffffffffffffffffff021916908373ffffffffffffffffffffffffffffffffffffffff160217905550808273ffffffffffffffffffffffffffffffffffffffff16611704836109d8565b73ffffffffffffffffffffffffffffffffffffffff167f8c5be1e5ebec7d5bd14f71427d1e84f3dd0314c0f7b2291e5b200ac8c7c3b92560405160405180910390a45050565b600080611756836109d8565b90508073ffffffffffffffffffffffffffffffffffffffff168473ffffffffffffffffffffffffffffffffffffffff161480611798575061179781856111a9565b5b806117d657508373ffffffffffffffffffffffffffffffffffffffff166117be84610583565b73ffffffffffffffffffffffffffffffffffffffff16145b91505092915050565b8273ffffffffffffffffffffffffffffffffffffffff166117ff826109d8565b73ffffffffffffffffffffffffffffffffffffffff1614611855576040517f08c379a000000000000000000000000000000000000000000000000000000000815260040161184c90613494565b60405180910390fd5b600073ffffffffffffffffffffffffffffffffffffffff168273ffffffffffffffffffffffffffffffffffffffff16036118c4576040517f08c379a00000000000000000000000000000000000000000000000000000000081526004016118bb90613526565b60405180910390fd5b6118d18383836001612044565b8273ffffffffffffffffffffffffffffffffffffffff166118f1826109d8565b73ffffffffffffffffffffffffffffffffffffffff1614611947576040517f08c379a000000000000000000000000000000000000000000000000000000000815260040161193e90613494565b60405180910390fd5b6004600082815260200190815260200160002060006101000a81549073ffffffffffffffffffffffffffffffffffffffff02191690556001600360008573ffffffffffffffffffffffffffffffffffffffff1673ffffffffffffffffffffffffffffffffffffffff168152602001908152602001600020600082825403925050819055506001600360008473ffffffffffffffffffffffffffffffffffffffff1673ffffffffffffffffffffffffffffffffffffffff16815260200190815260200160002060008282540192505081905550816002600083815260200190815260200160002060006101000a81548173ffffffffffffffffffffffffffffffffffffffff021916908373ffffffffffffffffffffffffffffffffffffffff160217905550808273ffffffffffffffffffffffffffffffffffffffff168473ffffffffffffffffffffffffffffffffffffffff167fddf252ad1be2c89b69c2b068fc378daa952ba7f163c4a11628f55a4df523b3ef60405160405180910390a4611ad3838383600161204a565b505050565b60006002600083815260200190815260200160002060009054906101000a900473ffffffffffffffffffffffffffffffffffffffff169050919050565b8173ffffffffffffffffffffffffffffffffffffffff168373ffffffffffffffffffffffffffffffffffffffff1603611b83576040517f08c379a0000000000000000000000000000000000000000000000000000000008152600401611b7a90613592565b60405180910390fd5b80600560008573ffffffffffffffffffffffffffffffffffffffff1673ffffffffffffffffffffffffffffffffffffffff16815260200190815260200160002060008473ffffffffffffffffffffffffffffffffffffffff1673ffffffffffffffffffffffffffffffffffffffff16815260200190815260200160002060006101000a81548160ff0219169083151502179055508173ffffffffffffffffffffffffffffffffffffffff168373ffffffffffffffffffffffffffffffffffffffff167f17307eab39ab6107e8899845ad3d59bd9653f200f220920489ca2b5937696c3183604051611c749190612401565b60405180910390a3505050565b611c8c8484846117df565b611c9884848484612050565b611cd7576040517f08c379a0000000000000000000000000000000000000000000000000000000008152600401611cce90613624565b60405180910390fd5b50505050565b606060405180602001604052806000815250905090565b606060006001611d03846121d7565b01905060008167ffffffffffffffff811115611d2257611d2161287b565b5b6040519080825280601f01601f191660200182016040528015611d545781602001600182028036833780820191505090505b509050600082602001820190505b600115611db7578080600190039150507f3031323334353637383961626364656600000000000000000000000000000000600a86061a8153600a8581611dab57611daa613644565b5b04945060008503611d62575b819350505050919050565b6001816000016000828254019250508190555050565b600081600001549050919050565b600073ffffffffffffffffffffffffffffffffffffffff168273ffffffffffffffffffffffffffffffffffffffff1603611e55576040517f08c379a0000000000000000000000000000000000000000000000000000000008152600401611e4c906136bf565b60405180910390fd5b611e5e81612003565b15611e9e576040517f08c379a0000000000000000000000000000000000000000000000000000000008152600401611e959061372b565b60405180910390fd5b611eac600083836001612044565b611eb581612003565b15611ef5576040517f08c379a0000000000000000000000000000000000000000000000000000000008152600401611eec9061372b565b60405180910390fd5b6001600360008473ffffffffffffffffffffffffffffffffffffffff1673ffffffffffffffffffffffffffffffffffffffff16815260200190815260200160002060008282540192505081905550816002600083815260200190815260200160002060006101000a81548173ffffffffffffffffffffffffffffffffffffffff021916908373ffffffffffffffffffffffffffffffffffffffff160217905550808273ffffffffffffffffffffffffffffffffffffffff16600073ffffffffffffffffffffffffffffffffffffffff167fddf252ad1be2c89b69c2b068fc378daa952ba7f163c4a11628f55a4df523b3ef60405160405180910390a4611fff60008383600161204a565b5050565b60008073ffffffffffffffffffffffffffffffffffffffff1661202583611ad8565b73ffffffffffffffffffffffffffffffffffffffff1614159050919050565b50505050565b50505050565b60006120718473ffffffffffffffffffffffffffffffffffffffff1661232a565b156121ca578373ffffffffffffffffffffffffffffffffffffffff1663150b7a0261209a611689565b8786866040518563ffffffff1660e01b81526004016120bc94939291906137a0565b6020604051808303816000875af19250505080156120f857506040513d601f19601f820116820180604052508101906120f59190613801565b60015b61217a573d8060008114612128576040519150601f19603f3d011682016040523d82523d6000602084013e61212d565b606091505b506000815103612172576040517f08c379a000000000000000000000000000000000000000000000000000000000815260040161216990613624565b60405180910390fd5b805181602001fd5b63150b7a0260e01b7bffffffffffffffffffffffffffffffffffffffffffffffffffffffff1916817bffffffffffffffffffffffffffffffffffffffffffffffffffffffff1916149150506121cf565b600190505b949350505050565b600080600090507a184f03e93ff9f4daa797ed6e38ed64bf6a1f0100000000000000008310612235577a184f03e93ff9f4daa797ed6e38ed64bf6a1f010000000000000000838161222b5761222a613644565b5b0492506040810190505b6d04ee2d6d415b85acef81000000008310612272576d04ee2d6d415b85acef8100000000838161226857612267613644565b5b0492506020810190505b662386f26fc1000083106122a157662386f26fc10000838161229757612296613644565b5b0492506010810190505b6305f5e10083106122ca576305f5e10083816122c0576122bf613644565b5b0492506008810190505b61271083106122ef5761271083816122e5576122e4613644565b5b0492506004810190505b60648310612312576064838161230857612307613644565b5b0492506002810190505b600a8310612321576001810190505b80915050919050565b6000808273ffffffffffffffffffffffffffffffffffffffff163b119050919050565b6000604051905090565b600080fd5b600080fd5b60007fffffffff0000000000000000000000000000000000000000000000000000000082169050919050565b61239681612361565b81146123a157600080fd5b50565b6000813590506123b38161238d565b92915050565b6000602082840312156123cf576123ce612357565b5b60006123dd848285016123a4565b91505092915050565b60008115159050919050565b6123fb816123e6565b82525050565b600060208201905061241660008301846123f2565b92915050565b600081519050919050565b600082825260208201905092915050565b60005b8381101561245657808201518184015260208101905061243b565b60008484015250505050565b6000601f19601f8301169050919050565b600061247e8261241c565b6124888185612427565b9350612498818560208601612438565b6124a181612462565b840191505092915050565b600060208201905081810360008301526124c68184612473565b905092915050565b6000819050919050565b6124e1816124ce565b81146124ec57600080fd5b50565b6000813590506124fe816124d8565b92915050565b60006020828403121561251a57612519612357565b5b6000612528848285016124ef565b91505092915050565b600073ffffffffffffffffffffffffffffffffffffffff82169050919050565b600061255c82612531565b9050919050565b61256c81612551565b82525050565b60006020820190506125876000830184612563565b92915050565b61259681612551565b81146125a157600080fd5b50565b6000813590506125b38161258d565b92915050565b600080604083850312156125d0576125cf612357565b5b60006125de858286016125a4565b92505060206125ef858286016124ef565b9150509250929050565b60008060006060848603121561261257612611612357565b5b6000612620868287016125a4565b9350506020612631868287016125a4565b9250506040612642868287016124ef565b9150509250925092565b6000819050919050565b600061267161266c61266784612531565b61264c565b612531565b9050919050565b600061268382612656565b9050919050565b600061269582612678565b9050919050565b6126a58161268a565b82525050565b60006020820190506126c0600083018461269c565b92915050565b6000602082840312156126dc576126db612357565b5b60006126ea848285016125a4565b91505092915050565b6126fc816124ce565b82525050565b600060208201905061271760008301846126f3565b92915050565b6000806040838503121561273457612733612357565b5b6000612742858286016124ef565b9250506020612753858286016124ef565b9150509250929050565b612766816123e6565b811461277157600080fd5b50565b6000813590506127838161275d565b92915050565b600080604083850312156127a05761279f612357565b5b60006127ae858286016125a4565b92505060206127bf85828601612774565b9150509250929050565b60006101008201905081810360008301526127e4818b612473565b905081810360208301526127f8818a612473565b9050818103604083015261280c8189612473565b905081810360608301526128208188612473565b905081810360808301526128348187612473565b905061284360a0830186612563565b81810360c08301526128558185612473565b905061286460e08301846126f3565b9998505050505050505050565b600080fd5b600080fd5b7f4e487b7100000000000000000000000000000000000000000000000000000000600052604160045260246000fd5b6128b382612462565b810181811067ffffffffffffffff821117156128d2576128d161287b565b5b80604052505050565b60006128e561234d565b90506128f182826128aa565b919050565b600067ffffffffffffffff8211156129115761291061287b565b5b61291a82612462565b9050602081019050919050565b82818337600083830152505050565b6000612949612944846128f6565b6128db565b90508281526020810184848401111561296557612964612876565b5b612970848285612927565b509392505050565b600082601f83011261298d5761298c612871565b5b813561299d848260208601612936565b91505092915050565b600080600080608085870312156129c0576129bf612357565b5b60006129ce878288016125a4565b94505060206129df878288016125a4565b93505060406129f0878288016124ef565b925050606085013567ffffffffffffffff811115612a1157612a1061235c565b5b612a1d87828801612978565b91505092959194509250565b60008060408385031215612a4057612a3f612357565b5b6000612a4e858286016125a4565b9250506020612a5f858286016125a4565b9150509250929050565b600080fd5b60006101008284031215612a8557612a84612a69565b5b81905092915050565b600060208284031215612aa457612aa3612357565b5b600082013567ffffffffffffffff811115612ac257612ac161235c565b5b612ace84828501612a6e565b91505092915050565b7f4e487b7100000000000000000000000000000000000000000000000000000000600052602260045260246000fd5b60006002820490506001821680612b1e57607f821691505b602082108103612b3157612b30612ad7565b5b50919050565b7f4552433732313a20617070726f76616c20746f2063757272656e74206f776e6560008201527f7200000000000000000000000000000000000000000000000000000000000000602082015250565b6000612b93602183612427565b9150612b9e82612b37565b604082019050919050565b60006020820190508181036000830152612bc281612b86565b9050919050565b7f4552433732313a20617070726f76652063616c6c6572206973206e6f7420746f60008201527f6b656e206f776e6572206f7220617070726f76656420666f7220616c6c000000602082015250565b6000612c25603d83612427565b9150612c3082612bc9565b604082019050919050565b60006020820190508181036000830152612c5481612c18565b9050919050565b7f4552433732313a2063616c6c6572206973206e6f7420746f6b656e206f776e6560008201527f72206f7220617070726f76656400000000000000000000000000000000000000602082015250565b6000612cb7602d83612427565b9150612cc282612c5b565b604082019050919050565b60006020820190508181036000830152612ce681612caa565b9050919050565b6000604082019050612d026000830185612563565b612d0f6020830184612563565b9392505050565b600081519050612d25816124d8565b92915050565b600060208284031215612d4157612d40612357565b5b6000612d4f84828501612d16565b91505092915050565b7f416c6c6f77616e6365206e6f7420656e6f756768000000000000000000000000600082015250565b6000612d8e601483612427565b9150612d9982612d58565b602082019050919050565b60006020820190508181036000830152612dbd81612d81565b9050919050565b6000606082019050612dd96000830186612563565b612de66020830185612563565b612df360408301846126f3565b949350505050565b600081519050612e0a8161275d565b92915050565b600060208284031215612e2657612e25612357565b5b6000612e3484828501612dfb565b91505092915050565b7f4552433732313a20696e76616c696420746f6b656e2049440000000000000000600082015250565b6000612e73601883612427565b9150612e7e82612e3d565b602082019050919050565b60006020820190508181036000830152612ea281612e66565b9050919050565b600081905092915050565b7f7075626c69630000000000000000000000000000000000000000000000000000600082015250565b6000612eea600683612ea9565b9150612ef582612eb4565b600682019050919050565b6000612f0b82612edd565b9150819050919050565b60008190508160005260206000209050919050565b60008154612f3781612b06565b612f418186612ea9565b94506001821660008114612f5c5760018114612f7157612fa4565b60ff1983168652811515820286019350612fa4565b612f7a85612f15565b60005b83811015612f9c57815481890152600182019150602081019050612f7d565b838801955050505b50505092915050565b6000612fb98284612f2a565b915081905092915050565b7f4e487b7100000000000000000000000000000000000000000000000000000000600052603260045260246000fd5b7f4e487b7100000000000000000000000000000000000000000000000000000000600052601160045260246000fd5b600061302d826124ce565b91507fffffffffffffffffffffffffffffffffffffffffffffffffffffffffffffffff820361305f5761305e612ff3565b5b600182019050919050565b7f4552433732313a2061646472657373207a65726f206973206e6f74206120766160008201527f6c6964206f776e65720000000000000000000000000000000000000000000000602082015250565b60006130c6602983612427565b91506130d18261306a565b604082019050919050565b600060208201905081810360008301526130f5816130b9565b9050919050565b60006131078261241c565b6131118185612ea9565b9350613121818560208601612438565b80840191505092915050565b600061313982856130fc565b915061314582846130fc565b91508190509392505050565b600080fd5b600080fd5b600080fd5b6000808335600160200384360303811261317d5761317c613151565b5b80840192508235915067ffffffffffffffff82111561319f5761319e613156565b5b6020830192506001820236038313156131bb576131ba61315b565b5b509250929050565b60006020601f8301049050919050565b600082821b905092915050565b6000600883026132107fffffffffffffffffffffffffffffffffffffffffffffffffffffffffffffffff826131d3565b61321a86836131d3565b95508019841693508086168417925050509392505050565b600061324d613248613243846124ce565b61264c565b6124ce565b9050919050565b6000819050919050565b61326783613232565b61327b61327382613254565b8484546131e0565b825550505050565b600090565b613290613283565b61329b81848461325e565b505050565b5b818110156132bf576132b4600082613288565b6001810190506132a1565b5050565b601f821115613304576132d581612f15565b6132de846131c3565b810160208510156132ed578190505b6133016132f9856131c3565b8301826132a0565b50505b505050565b600082821c905092915050565b600061332760001984600802613309565b1980831691505092915050565b60006133408383613316565b9150826002028217905092915050565b6133598261241c565b67ffffffffffffffff8111156133725761337161287b565b5b61337c8254612b06565b6133878282856132c3565b600060209050601f8311600181146133ba57600084156133a8578287015190505b6133b28582613334565b86555061341a565b601f1984166133c886612f15565b60005b828110156133f0578489015182556001820191506020850194506020810190506133cb565b8683101561340d5784890151613409601f891682613316565b8355505b6001600288020188555050505b505050505050565b7f4552433732313a207472616e736665722066726f6d20696e636f72726563742060008201527f6f776e6572000000000000000000000000000000000000000000000000000000602082015250565b600061347e602583612427565b915061348982613422565b604082019050919050565b600060208201905081810360008301526134ad81613471565b9050919050565b7f4552433732313a207472616e7366657220746f20746865207a65726f2061646460008201527f7265737300000000000000000000000000000000000000000000000000000000602082015250565b6000613510602483612427565b915061351b826134b4565b604082019050919050565b6000602082019050818103600083015261353f81613503565b9050919050565b7f4552433732313a20617070726f766520746f2063616c6c657200000000000000600082015250565b600061357c601983612427565b915061358782613546565b602082019050919050565b600060208201905081810360008301526135ab8161356f565b9050919050565b7f4552433732313a207472616e7366657220746f206e6f6e20455243373231526560008201527f63656976657220696d706c656d656e7465720000000000000000000000000000602082015250565b600061360e603283612427565b9150613619826135b2565b604082019050919050565b6000602082019050818103600083015261363d81613601565b9050919050565b7f4e487b7100000000000000000000000000000000000000000000000000000000600052601260045260246000fd5b7f4552433732313a206d696e7420746f20746865207a65726f2061646472657373600082015250565b60006136a9602083612427565b91506136b482613673565b602082019050919050565b600060208201905081810360008301526136d88161369c565b9050919050565b7f4552433732313a20746f6b656e20616c7265616479206d696e74656400000000600082015250565b6000613715601c83612427565b9150613720826136df565b602082019050919050565b6000602082019050818103600083015261374481613708565b9050919050565b600081519050919050565b600082825260208201905092915050565b60006137728261374b565b61377c8185613756565b935061378c818560208601612438565b61379581612462565b840191505092915050565b60006080820190506137b56000830187612563565b6137c26020830186612563565b6137cf60408301856126f3565b81810360608301526137e18184613767565b905095945050505050565b6000815190506137fb8161238d565b92915050565b60006020828403121561381757613816612357565b5b6000613825848285016137ec565b9150509291505056fea26469706673582212201d1296c9fd90c81de41d3d19c5cb9fc7d7f79a002c0fe7c82c3a05fa833ce46964736f6c63430008100033",
  "linkReferences": {},
  "deployedLinkReferences": {}
}