{
  "_format": "hh-sol-artifact-1",
  "contractName": "TutorialHaven",
  "sourceName": "contracts/TutorialHaven.sol",
  "abi": [
    {
      "inputs": [],
      "stateMutability": "nonpayable",
      "type": "constructor"
    },
    {
      "anonymous": false,
      "inputs": [
        {
          "indexed": true,
          "internalType": "address",
          "name": "owner",
          "type": "address"
        },
        {
          "indexed": true,
          "internalType": "address",
          "name": "approved",
          "type": "address"
        },
        {
          "indexed": true,
          "internalType": "uint256",
          "name": "tokenId",
          "type": "uint256"
        }
      ],
      "name": "Approval",
      "type": "event"
    },
    {
      "anonymous": false,
      "inputs": [
        {
          "indexed": true,
          "internalType": "address",
          "name": "owner",
          "type": "address"
        },
        {
          "indexed": true,
          "internalType": "address",
          "name": "operator",
          "type": "address"
        },
        {
          "indexed": false,
          "internalType": "bool",
          "name": "approved",
          "type": "bool"
        }
      ],
      "name": "ApprovalForAll",
      "type": "event"
    },
    {
      "anonymous": false,
      "inputs": [
        {
          "indexed": true,
          "internalType": "address",
          "name": "from",
          "type": "address"
        },
        {
          "indexed": true,
          "internalType": "address",
          "name": "to",
          "type": "address"
        },
        {
          "indexed": true,
          "internalType": "uint256",
          "name": "tokenId",
          "type": "uint256"
        }
      ],
      "name": "Transfer",
      "type": "event"
    },
    {
      "inputs": [
        {
          "internalType": "address",
          "name": "to",
          "type": "address"
        },
        {
          "internalType": "uint256",
          "name": "tokenId",
          "type": "uint256"
        }
      ],
      "name": "approve",
      "outputs": [],
      "stateMutability": "nonpayable",
      "type": "function"
    },
    {
      "inputs": [
        {
          "internalType": "address",
          "name": "owner",
          "type": "address"
        }
      ],
      "name": "balanceOf",
      "outputs": [
        {
          "internalType": "uint256",
          "name": "",
          "type": "uint256"
        }
      ],
      "stateMutability": "view",
      "type": "function"
    },
    {
      "inputs": [
        {
          "internalType": "uint256",
          "name": "tokenId",
          "type": "uint256"
        }
      ],
      "name": "getApproved",
      "outputs": [
        {
          "internalType": "address",
          "name": "",
          "type": "address"
        }
      ],
      "stateMutability": "view",
      "type": "function"
    },
    {
      "inputs": [
        {
          "internalType": "address",
          "name": "owner",
          "type": "address"
        },
        {
          "internalType": "address",
          "name": "operator",
          "type": "address"
        }
      ],
      "name": "isApprovedForAll",
      "outputs": [
        {
          "internalType": "bool",
          "name": "",
          "type": "bool"
        }
      ],
      "stateMutability": "view",
      "type": "function"
    },
    {
      "inputs": [],
      "name": "name",
      "outputs": [
        {
          "internalType": "string",
          "name": "",
          "type": "string"
        }
      ],
      "stateMutability": "view",
      "type": "function"
    },
    {
      "inputs": [
        {
          "internalType": "uint256",
          "name": "tokenId",
          "type": "uint256"
        }
      ],
      "name": "ownerOf",
      "outputs": [
        {
          "internalType": "address",
          "name": "",
          "type": "address"
        }
      ],
      "stateMutability": "view",
      "type": "function"
    },
    {
      "inputs": [
        {
          "internalType": "address",
          "name": "from",
          "type": "address"
        },
        {
          "internalType": "address",
          "name": "to",
          "type": "address"
        },
        {
          "internalType": "uint256",
          "name": "tokenId",
          "type": "uint256"
        }
      ],
      "name": "safeTransferFrom",
      "outputs": [],
      "stateMutability": "nonpayable",
      "type": "function"
    },
    {
      "inputs": [
        {
          "internalType": "address",
          "name": "from",
          "type": "address"
        },
        {
          "internalType": "address",
          "name": "to",
          "type": "address"
        },
        {
          "internalType": "uint256",
          "name": "tokenId",
          "type": "uint256"
        },
        {
          "internalType": "bytes",
          "name": "data",
          "type": "bytes"
        }
      ],
      "name": "safeTransferFrom",
      "outputs": [],
      "stateMutability": "nonpayable",
      "type": "function"
    },
    {
      "inputs": [
        {
          "internalType": "address",
          "name": "operator",
          "type": "address"
        },
        {
          "internalType": "bool",
          "name": "approved",
          "type": "bool"
        }
      ],
      "name": "setApprovalForAll",
      "outputs": [],
      "stateMutability": "nonpayable",
      "type": "function"
    },
    {
      "inputs": [
        {
          "internalType": "bytes4",
          "name": "interfaceId",
          "type": "bytes4"
        }
      ],
      "name": "supportsInterface",
      "outputs": [
        {
          "internalType": "bool",
          "name": "",
          "type": "bool"
        }
      ],
      "stateMutability": "view",
      "type": "function"
    },
    {
      "inputs": [],
      "name": "symbol",
      "outputs": [
        {
          "internalType": "string",
          "name": "",
          "type": "string"
        }
      ],
      "stateMutability": "view",
      "type": "function"
    },
    {
      "inputs": [
        {
          "internalType": "uint256",
          "name": "tokenId",
          "type": "uint256"
        }
      ],
      "name": "tokenURI",
      "outputs": [
        {
          "internalType": "string",
          "name": "",
          "type": "string"
        }
      ],
      "stateMutability": "view",
      "type": "function"
    },
    {
      "inputs": [
        {
          "internalType": "address",
          "name": "from",
          "type": "address"
        },
        {
          "internalType": "address",
          "name": "to",
          "type": "address"
        },
        {
          "internalType": "uint256",
          "name": "tokenId",
          "type": "uint256"
        }
      ],
      "name": "transferFrom",
      "outputs": [],
      "stateMutability": "nonpayable",
      "type": "function"
    },
    {
      "inputs": [
        {
          "internalType": "string",
          "name": "_title",
          "type": "string"
        },
        {
          "internalType": "string",
          "name": "_description",
          "type": "string"
        },
        {
          "internalType": "string",
          "name": "_url",
          "type": "string"
        },
        {
          "internalType": "string",
          "name": "_thumbnail",
          "type": "string"
        },
        {
          "internalType": "string",
          "name": "_author",
          "type": "string"
        }
      ],
      "name": "uploadVideo",
      "outputs": [
        {
          "internalType": "uint256",
          "name": "",
          "type": "uint256"
        }
      ],
      "stateMutability": "nonpayable",
      "type": "function"
    },
    {
      "inputs": [
        {
          "internalType": "uint256",
          "name": "",
          "type": "uint256"
        }
      ],
      "name": "videoMetadata",
      "outputs": [
        {
          "internalType": "string",
          "name": "title",
          "type": "string"
        },
        {
          "internalType": "string",
          "name": "description",
          "type": "string"
        },
        {
          "internalType": "string",
          "name": "url",
          "type": "string"
        },
        {
          "internalType": "string",
          "name": "thumbnail",
          "type": "string"
        },
        {
          "internalType": "string",
          "name": "author",
          "type": "string"
        }
      ],
      "stateMutability": "view",
      "type": "function"
    }
  ],
  "bytecode": "0x60806040523480156200001157600080fd5b506040518060400160405280600e81526020017f5475746f7269616c20486176656e0000000000000000000000000000000000008152506040518060400160405280600381526020017f54484e000000000000000000000000000000000000000000000000000000000081525081600090816200008f919062000324565b508060019081620000a1919062000324565b5050506200040b565b600081519050919050565b7f4e487b7100000000000000000000000000000000000000000000000000000000600052604160045260246000fd5b7f4e487b7100000000000000000000000000000000000000000000000000000000600052602260045260246000fd5b600060028204905060018216806200012c57607f821691505b602082108103620001425762000141620000e4565b5b50919050565b60008190508160005260206000209050919050565b60006020601f8301049050919050565b600082821b905092915050565b600060088302620001ac7fffffffffffffffffffffffffffffffffffffffffffffffffffffffffffffffff826200016d565b620001b886836200016d565b95508019841693508086168417925050509392505050565b6000819050919050565b6000819050919050565b600062000205620001ff620001f984620001d0565b620001da565b620001d0565b9050919050565b6000819050919050565b6200022183620001e4565b6200023962000230826200020c565b8484546200017a565b825550505050565b600090565b6200025062000241565b6200025d81848462000216565b505050565b5b8181101562000285576200027960008262000246565b60018101905062000263565b5050565b601f821115620002d4576200029e8162000148565b620002a9846200015d565b81016020851015620002b9578190505b620002d1620002c8856200015d565b83018262000262565b50505b505050565b600082821c905092915050565b6000620002f960001984600802620002d9565b1980831691505092915050565b6000620003148383620002e6565b9150826002028217905092915050565b6200032f82620000aa565b67ffffffffffffffff8111156200034b576200034a620000b5565b5b62000357825462000113565b6200036482828562000289565b600060209050601f8311600181146200039c576000841562000387578287015190505b62000393858262000306565b86555062000403565b601f198416620003ac8662000148565b60005b82811015620003d657848901518255600182019150602085019450602081019050620003af565b86831015620003f65784890151620003f2601f891682620002e6565b8355505b6001600288020188555050505b505050505050565b612e4d806200041b6000396000f3fe608060405234801561001057600080fd5b50600436106100f55760003560e01c806370a0823111610097578063a449d45a11610066578063a449d45a14610296578063b88d4fde146102ca578063c87b56dd146102e6578063e985e9c514610316576100f5565b806370a08231146101fc57806395d89b411461022c57806398f526e61461024a578063a22cb4651461027a576100f5565b8063095ea7b3116100d3578063095ea7b31461017857806323b872dd1461019457806342842e0e146101b05780636352211e146101cc576100f5565b806301ffc9a7146100fa57806306fdde031461012a578063081812fc14610148575b600080fd5b610114600480360381019061010f9190611cd8565b610346565b6040516101219190611d20565b60405180910390f35b610132610428565b60405161013f9190611dcb565b60405180910390f35b610162600480360381019061015d9190611e23565b6104ba565b60405161016f9190611e91565b60405180910390f35b610192600480360381019061018d9190611ed8565b610500565b005b6101ae60048036038101906101a99190611f18565b610617565b005b6101ca60048036038101906101c59190611f18565b610677565b005b6101e660048036038101906101e19190611e23565b610697565b6040516101f39190611e91565b60405180910390f35b61021660048036038101906102119190611f6b565b61071d565b6040516102239190611fa7565b60405180910390f35b6102346107d4565b6040516102419190611dcb565b60405180910390f35b610264600480360381019061025f9190612027565b610866565b6040516102719190611fa7565b60405180910390f35b610294600480360381019061028f9190612170565b610aa1565b005b6102b060048036038101906102ab9190611e23565b610ab7565b6040516102c19594939291906121b0565b60405180910390f35b6102e460048036038101906102df9190612356565b610d95565b005b61030060048036038101906102fb9190611e23565b610df7565b60405161030d9190611dcb565b60405180910390f35b610330600480360381019061032b91906123d9565b610e5f565b60405161033d9190611d20565b60405180910390f35b60007f80ac58cd000000000000000000000000000000000000000000000000000000007bffffffffffffffffffffffffffffffffffffffffffffffffffffffff1916827bffffffffffffffffffffffffffffffffffffffffffffffffffffffff1916148061041157507f5b5e139f000000000000000000000000000000000000000000000000000000007bffffffffffffffffffffffffffffffffffffffffffffffffffffffff1916827bffffffffffffffffffffffffffffffffffffffffffffffffffffffff1916145b80610421575061042082610ef3565b5b9050919050565b60606000805461043790612448565b80601f016020809104026020016040519081016040528092919081815260200182805461046390612448565b80156104b05780601f10610485576101008083540402835291602001916104b0565b820191906000526020600020905b81548152906001019060200180831161049357829003601f168201915b5050505050905090565b60006104c582610f5d565b6004600083815260200190815260200160002060009054906101000a900473ffffffffffffffffffffffffffffffffffffffff169050919050565b600061050b82610697565b90508073ffffffffffffffffffffffffffffffffffffffff168373ffffffffffffffffffffffffffffffffffffffff160361057b576040517f08c379a0000000000000000000000000000000000000000000000000000000008152600401610572906124eb565b60405180910390fd5b8073ffffffffffffffffffffffffffffffffffffffff1661059a610fa8565b73ffffffffffffffffffffffffffffffffffffffff1614806105c957506105c8816105c3610fa8565b610e5f565b5b610608576040517f08c379a00000000000000000000000000000000000000000000000000000000081526004016105ff9061257d565b60405180910390fd5b6106128383610fb0565b505050565b610628610622610fa8565b82611069565b610667576040517f08c379a000000000000000000000000000000000000000000000000000000000815260040161065e9061260f565b60405180910390fd5b6106728383836110fe565b505050565b61069283838360405180602001604052806000815250610d95565b505050565b6000806106a3836113f7565b9050600073ffffffffffffffffffffffffffffffffffffffff168173ffffffffffffffffffffffffffffffffffffffff1603610714576040517f08c379a000000000000000000000000000000000000000000000000000000000815260040161070b9061267b565b60405180910390fd5b80915050919050565b60008073ffffffffffffffffffffffffffffffffffffffff168273ffffffffffffffffffffffffffffffffffffffff160361078d576040517f08c379a00000000000000000000000000000000000000000000000000000000081526004016107849061270d565b60405180910390fd5b600360008373ffffffffffffffffffffffffffffffffffffffff1673ffffffffffffffffffffffffffffffffffffffff168152602001908152602001600020549050919050565b6060600180546107e390612448565b80601f016020809104026020016040519081016040528092919081815260200182805461080f90612448565b801561085c5780601f106108315761010080835404028352916020019161085c565b820191906000526020600020905b81548152906001019060200180831161083f57829003601f168201915b5050505050905090565b60006108726006611434565b600061087e600661144a565b905061088a3382611458565b60006040518060a001604052808e8e8080601f016020809104026020016040519081016040528093929190818152602001838380828437600081840152601f19601f8201169050808301925050505050505081526020018c8c8080601f016020809104026020016040519081016040528093929190818152602001838380828437600081840152601f19601f8201169050808301925050505050505081526020018a8a8080601f016020809104026020016040519081016040528093929190818152602001838380828437600081840152601f19601f82011690508083019250505050505050815260200188888080601f016020809104026020016040519081016040528093929190818152602001838380828437600081840152601f19601f82011690508083019250505050505050815260200186868080601f016020809104026020016040519081016040528093929190818152602001838380828437600081840152601f19601f82011690508083019250505050505050815250905080600760008481526020019081526020016000206000820151816000019081610a3291906128d9565b506020820151816001019081610a4891906128d9565b506040820151816002019081610a5e91906128d9565b506060820151816003019081610a7491906128d9565b506080820151816004019081610a8a91906128d9565b5090505081925050509a9950505050505050505050565b610ab3610aac610fa8565b8383611675565b5050565b6007602052806000526040600020600091509050806000018054610ada90612448565b80601f0160208091040260200160405190810160405280929190818152602001828054610b0690612448565b8015610b535780601f10610b2857610100808354040283529160200191610b53565b820191906000526020600020905b815481529060010190602001808311610b3657829003601f168201915b505050505090806001018054610b6890612448565b80601f0160208091040260200160405190810160405280929190818152602001828054610b9490612448565b8015610be15780601f10610bb657610100808354040283529160200191610be1565b820191906000526020600020905b815481529060010190602001808311610bc457829003601f168201915b505050505090806002018054610bf690612448565b80601f0160208091040260200160405190810160405280929190818152602001828054610c2290612448565b8015610c6f5780601f10610c4457610100808354040283529160200191610c6f565b820191906000526020600020905b815481529060010190602001808311610c5257829003601f168201915b505050505090806003018054610c8490612448565b80601f0160208091040260200160405190810160405280929190818152602001828054610cb090612448565b8015610cfd5780601f10610cd257610100808354040283529160200191610cfd565b820191906000526020600020905b815481529060010190602001808311610ce057829003601f168201915b505050505090806004018054610d1290612448565b80601f0160208091040260200160405190810160405280929190818152602001828054610d3e90612448565b8015610d8b5780601f10610d6057610100808354040283529160200191610d8b565b820191906000526020600020905b815481529060010190602001808311610d6e57829003601f168201915b5050505050905085565b610da6610da0610fa8565b83611069565b610de5576040517f08c379a0000000000000000000000000000000000000000000000000000000008152600401610ddc9061260f565b60405180910390fd5b610df1848484846117e1565b50505050565b6060610e0282610f5d565b6000610e0c61183d565b90506000815111610e2c5760405180602001604052806000815250610e57565b80610e3684611854565b604051602001610e479291906129e7565b6040516020818303038152906040525b915050919050565b6000600560008473ffffffffffffffffffffffffffffffffffffffff1673ffffffffffffffffffffffffffffffffffffffff16815260200190815260200160002060008373ffffffffffffffffffffffffffffffffffffffff1673ffffffffffffffffffffffffffffffffffffffff16815260200190815260200160002060009054906101000a900460ff16905092915050565b60007f01ffc9a7000000000000000000000000000000000000000000000000000000007bffffffffffffffffffffffffffffffffffffffffffffffffffffffff1916827bffffffffffffffffffffffffffffffffffffffffffffffffffffffff1916149050919050565b610f6681611922565b610fa5576040517f08c379a0000000000000000000000000000000000000000000000000000000008152600401610f9c9061267b565b60405180910390fd5b50565b600033905090565b816004600083815260200190815260200160002060006101000a81548173ffffffffffffffffffffffffffffffffffffffff021916908373ffffffffffffffffffffffffffffffffffffffff160217905550808273ffffffffffffffffffffffffffffffffffffffff1661102383610697565b73ffffffffffffffffffffffffffffffffffffffff167f8c5be1e5ebec7d5bd14f71427d1e84f3dd0314c0f7b2291e5b200ac8c7c3b92560405160405180910390a45050565b60008061107583610697565b90508073ffffffffffffffffffffffffffffffffffffffff168473ffffffffffffffffffffffffffffffffffffffff1614806110b757506110b68185610e5f565b5b806110f557508373ffffffffffffffffffffffffffffffffffffffff166110dd846104ba565b73ffffffffffffffffffffffffffffffffffffffff16145b91505092915050565b8273ffffffffffffffffffffffffffffffffffffffff1661111e82610697565b73ffffffffffffffffffffffffffffffffffffffff1614611174576040517f08c379a000000000000000000000000000000000000000000000000000000000815260040161116b90612a7d565b60405180910390fd5b600073ffffffffffffffffffffffffffffffffffffffff168273ffffffffffffffffffffffffffffffffffffffff16036111e3576040517f08c379a00000000000000000000000000000000000000000000000000000000081526004016111da90612b0f565b60405180910390fd5b6111f08383836001611963565b8273ffffffffffffffffffffffffffffffffffffffff1661121082610697565b73ffffffffffffffffffffffffffffffffffffffff1614611266576040517f08c379a000000000000000000000000000000000000000000000000000000000815260040161125d90612a7d565b60405180910390fd5b6004600082815260200190815260200160002060006101000a81549073ffffffffffffffffffffffffffffffffffffffff02191690556001600360008573ffffffffffffffffffffffffffffffffffffffff1673ffffffffffffffffffffffffffffffffffffffff168152602001908152602001600020600082825403925050819055506001600360008473ffffffffffffffffffffffffffffffffffffffff1673ffffffffffffffffffffffffffffffffffffffff16815260200190815260200160002060008282540192505081905550816002600083815260200190815260200160002060006101000a81548173ffffffffffffffffffffffffffffffffffffffff021916908373ffffffffffffffffffffffffffffffffffffffff160217905550808273ffffffffffffffffffffffffffffffffffffffff168473ffffffffffffffffffffffffffffffffffffffff167fddf252ad1be2c89b69c2b068fc378daa952ba7f163c4a11628f55a4df523b3ef60405160405180910390a46113f28383836001611969565b505050565b60006002600083815260200190815260200160002060009054906101000a900473ffffffffffffffffffffffffffffffffffffffff169050919050565b6001816000016000828254019250508190555050565b600081600001549050919050565b600073ffffffffffffffffffffffffffffffffffffffff168273ffffffffffffffffffffffffffffffffffffffff16036114c7576040517f08c379a00000000000000000000000000000000000000000000000000000000081526004016114be90612b7b565b60405180910390fd5b6114d081611922565b15611510576040517f08c379a000000000000000000000000000000000000000000000000000000000815260040161150790612be7565b60405180910390fd5b61151e600083836001611963565b61152781611922565b15611567576040517f08c379a000000000000000000000000000000000000000000000000000000000815260040161155e90612be7565b60405180910390fd5b6001600360008473ffffffffffffffffffffffffffffffffffffffff1673ffffffffffffffffffffffffffffffffffffffff16815260200190815260200160002060008282540192505081905550816002600083815260200190815260200160002060006101000a81548173ffffffffffffffffffffffffffffffffffffffff021916908373ffffffffffffffffffffffffffffffffffffffff160217905550808273ffffffffffffffffffffffffffffffffffffffff16600073ffffffffffffffffffffffffffffffffffffffff167fddf252ad1be2c89b69c2b068fc378daa952ba7f163c4a11628f55a4df523b3ef60405160405180910390a4611671600083836001611969565b5050565b8173ffffffffffffffffffffffffffffffffffffffff168373ffffffffffffffffffffffffffffffffffffffff16036116e3576040517f08c379a00000000000000000000000000000000000000000000000000000000081526004016116da90612c53565b60405180910390fd5b80600560008573ffffffffffffffffffffffffffffffffffffffff1673ffffffffffffffffffffffffffffffffffffffff16815260200190815260200160002060008473ffffffffffffffffffffffffffffffffffffffff1673ffffffffffffffffffffffffffffffffffffffff16815260200190815260200160002060006101000a81548160ff0219169083151502179055508173ffffffffffffffffffffffffffffffffffffffff168373ffffffffffffffffffffffffffffffffffffffff167f17307eab39ab6107e8899845ad3d59bd9653f200f220920489ca2b5937696c31836040516117d49190611d20565b60405180910390a3505050565b6117ec8484846110fe565b6117f88484848461196f565b611837576040517f08c379a000000000000000000000000000000000000000000000000000000000815260040161182e90612ce5565b60405180910390fd5b50505050565b606060405180602001604052806000815250905090565b60606000600161186384611af6565b01905060008167ffffffffffffffff8111156118825761188161222b565b5b6040519080825280601f01601f1916602001820160405280156118b45781602001600182028036833780820191505090505b509050600082602001820190505b600115611917578080600190039150507f3031323334353637383961626364656600000000000000000000000000000000600a86061a8153600a858161190b5761190a612d05565b5b049450600085036118c2575b819350505050919050565b60008073ffffffffffffffffffffffffffffffffffffffff16611944836113f7565b73ffffffffffffffffffffffffffffffffffffffff1614159050919050565b50505050565b50505050565b60006119908473ffffffffffffffffffffffffffffffffffffffff16611c49565b15611ae9578373ffffffffffffffffffffffffffffffffffffffff1663150b7a026119b9610fa8565b8786866040518563ffffffff1660e01b81526004016119db9493929190612d89565b6020604051808303816000875af1925050508015611a1757506040513d601f19601f82011682018060405250810190611a149190612dea565b60015b611a99573d8060008114611a47576040519150601f19603f3d011682016040523d82523d6000602084013e611a4c565b606091505b506000815103611a91576040517f08c379a0000000000000000000000000000000000000000000000000000000008152600401611a8890612ce5565b60405180910390fd5b805181602001fd5b63150b7a0260e01b7bffffffffffffffffffffffffffffffffffffffffffffffffffffffff1916817bffffffffffffffffffffffffffffffffffffffffffffffffffffffff191614915050611aee565b600190505b949350505050565b600080600090507a184f03e93ff9f4daa797ed6e38ed64bf6a1f0100000000000000008310611b54577a184f03e93ff9f4daa797ed6e38ed64bf6a1f0100000000000000008381611b4a57611b49612d05565b5b0492506040810190505b6d04ee2d6d415b85acef81000000008310611b91576d04ee2d6d415b85acef81000000008381611b8757611b86612d05565b5b0492506020810190505b662386f26fc100008310611bc057662386f26fc100008381611bb657611bb5612d05565b5b0492506010810190505b6305f5e1008310611be9576305f5e1008381611bdf57611bde612d05565b5b0492506008810190505b6127108310611c0e576127108381611c0457611c03612d05565b5b0492506004810190505b60648310611c315760648381611c2757611c26612d05565b5b0492506002810190505b600a8310611c40576001810190505b80915050919050565b6000808273ffffffffffffffffffffffffffffffffffffffff163b119050919050565b6000604051905090565b600080fd5b600080fd5b60007fffffffff0000000000000000000000000000000000000000000000000000000082169050919050565b611cb581611c80565b8114611cc057600080fd5b50565b600081359050611cd281611cac565b92915050565b600060208284031215611cee57611ced611c76565b5b6000611cfc84828501611cc3565b91505092915050565b60008115159050919050565b611d1a81611d05565b82525050565b6000602082019050611d356000830184611d11565b92915050565b600081519050919050565b600082825260208201905092915050565b60005b83811015611d75578082015181840152602081019050611d5a565b60008484015250505050565b6000601f19601f8301169050919050565b6000611d9d82611d3b565b611da78185611d46565b9350611db7818560208601611d57565b611dc081611d81565b840191505092915050565b60006020820190508181036000830152611de58184611d92565b905092915050565b6000819050919050565b611e0081611ded565b8114611e0b57600080fd5b50565b600081359050611e1d81611df7565b92915050565b600060208284031215611e3957611e38611c76565b5b6000611e4784828501611e0e565b91505092915050565b600073ffffffffffffffffffffffffffffffffffffffff82169050919050565b6000611e7b82611e50565b9050919050565b611e8b81611e70565b82525050565b6000602082019050611ea66000830184611e82565b92915050565b611eb581611e70565b8114611ec057600080fd5b50565b600081359050611ed281611eac565b92915050565b60008060408385031215611eef57611eee611c76565b5b6000611efd85828601611ec3565b9250506020611f0e85828601611e0e565b9150509250929050565b600080600060608486031215611f3157611f30611c76565b5b6000611f3f86828701611ec3565b9350506020611f5086828701611ec3565b9250506040611f6186828701611e0e565b9150509250925092565b600060208284031215611f8157611f80611c76565b5b6000611f8f84828501611ec3565b91505092915050565b611fa181611ded565b82525050565b6000602082019050611fbc6000830184611f98565b92915050565b600080fd5b600080fd5b600080fd5b60008083601f840112611fe757611fe6611fc2565b5b8235905067ffffffffffffffff81111561200457612003611fc7565b5b6020830191508360018202830111156120205761201f611fcc565b5b9250929050565b60008060008060008060008060008060a08b8d03121561204a57612049611c76565b5b60008b013567ffffffffffffffff81111561206857612067611c7b565b5b6120748d828e01611fd1565b9a509a505060208b013567ffffffffffffffff81111561209757612096611c7b565b5b6120a38d828e01611fd1565b985098505060408b013567ffffffffffffffff8111156120c6576120c5611c7b565b5b6120d28d828e01611fd1565b965096505060608b013567ffffffffffffffff8111156120f5576120f4611c7b565b5b6121018d828e01611fd1565b945094505060808b013567ffffffffffffffff81111561212457612123611c7b565b5b6121308d828e01611fd1565b92509250509295989b9194979a5092959850565b61214d81611d05565b811461215857600080fd5b50565b60008135905061216a81612144565b92915050565b6000806040838503121561218757612186611c76565b5b600061219585828601611ec3565b92505060206121a68582860161215b565b9150509250929050565b600060a08201905081810360008301526121ca8188611d92565b905081810360208301526121de8187611d92565b905081810360408301526121f28186611d92565b905081810360608301526122068185611d92565b9050818103608083015261221a8184611d92565b90509695505050505050565b600080fd5b7f4e487b7100000000000000000000000000000000000000000000000000000000600052604160045260246000fd5b61226382611d81565b810181811067ffffffffffffffff821117156122825761228161222b565b5b80604052505050565b6000612295611c6c565b90506122a1828261225a565b919050565b600067ffffffffffffffff8211156122c1576122c061222b565b5b6122ca82611d81565b9050602081019050919050565b82818337600083830152505050565b60006122f96122f4846122a6565b61228b565b90508281526020810184848401111561231557612314612226565b5b6123208482856122d7565b509392505050565b600082601f83011261233d5761233c611fc2565b5b813561234d8482602086016122e6565b91505092915050565b600080600080608085870312156123705761236f611c76565b5b600061237e87828801611ec3565b945050602061238f87828801611ec3565b93505060406123a087828801611e0e565b925050606085013567ffffffffffffffff8111156123c1576123c0611c7b565b5b6123cd87828801612328565b91505092959194509250565b600080604083850312156123f0576123ef611c76565b5b60006123fe85828601611ec3565b925050602061240f85828601611ec3565b9150509250929050565b7f4e487b7100000000000000000000000000000000000000000000000000000000600052602260045260246000fd5b6000600282049050600182168061246057607f821691505b60208210810361247357612472612419565b5b50919050565b7f4552433732313a20617070726f76616c20746f2063757272656e74206f776e6560008201527f7200000000000000000000000000000000000000000000000000000000000000602082015250565b60006124d5602183611d46565b91506124e082612479565b604082019050919050565b60006020820190508181036000830152612504816124c8565b9050919050565b7f4552433732313a20617070726f76652063616c6c6572206973206e6f7420746f60008201527f6b656e206f776e6572206f7220617070726f76656420666f7220616c6c000000602082015250565b6000612567603d83611d46565b91506125728261250b565b604082019050919050565b600060208201905081810360008301526125968161255a565b9050919050565b7f4552433732313a2063616c6c6572206973206e6f7420746f6b656e206f776e6560008201527f72206f7220617070726f76656400000000000000000000000000000000000000602082015250565b60006125f9602d83611d46565b91506126048261259d565b604082019050919050565b60006020820190508181036000830152612628816125ec565b9050919050565b7f4552433732313a20696e76616c696420746f6b656e2049440000000000000000600082015250565b6000612665601883611d46565b91506126708261262f565b602082019050919050565b6000602082019050818103600083015261269481612658565b9050919050565b7f4552433732313a2061646472657373207a65726f206973206e6f74206120766160008201527f6c6964206f776e65720000000000000000000000000000000000000000000000602082015250565b60006126f7602983611d46565b91506127028261269b565b604082019050919050565b60006020820190508181036000830152612726816126ea565b9050919050565b60008190508160005260206000209050919050565b60006020601f8301049050919050565b600082821b905092915050565b60006008830261278f7fffffffffffffffffffffffffffffffffffffffffffffffffffffffffffffffff82612752565b6127998683612752565b95508019841693508086168417925050509392505050565b6000819050919050565b60006127d66127d16127cc84611ded565b6127b1565b611ded565b9050919050565b6000819050919050565b6127f0836127bb565b6128046127fc826127dd565b84845461275f565b825550505050565b600090565b61281961280c565b6128248184846127e7565b505050565b5b818110156128485761283d600082612811565b60018101905061282a565b5050565b601f82111561288d5761285e8161272d565b61286784612742565b81016020851015612876578190505b61288a61288285612742565b830182612829565b50505b505050565b600082821c905092915050565b60006128b060001984600802612892565b1980831691505092915050565b60006128c9838361289f565b9150826002028217905092915050565b6128e282611d3b565b67ffffffffffffffff8111156128fb576128fa61222b565b5b6129058254612448565b61291082828561284c565b600060209050601f8311600181146129435760008415612931578287015190505b61293b85826128bd565b8655506129a3565b601f1984166129518661272d565b60005b8281101561297957848901518255600182019150602085019450602081019050612954565b868310156129965784890151612992601f89168261289f565b8355505b6001600288020188555050505b505050505050565b600081905092915050565b60006129c182611d3b565b6129cb81856129ab565b93506129db818560208601611d57565b80840191505092915050565b60006129f382856129b6565b91506129ff82846129b6565b91508190509392505050565b7f4552433732313a207472616e736665722066726f6d20696e636f72726563742060008201527f6f776e6572000000000000000000000000000000000000000000000000000000602082015250565b6000612a67602583611d46565b9150612a7282612a0b565b604082019050919050565b60006020820190508181036000830152612a9681612a5a565b9050919050565b7f4552433732313a207472616e7366657220746f20746865207a65726f2061646460008201527f7265737300000000000000000000000000000000000000000000000000000000602082015250565b6000612af9602483611d46565b9150612b0482612a9d565b604082019050919050565b60006020820190508181036000830152612b2881612aec565b9050919050565b7f4552433732313a206d696e7420746f20746865207a65726f2061646472657373600082015250565b6000612b65602083611d46565b9150612b7082612b2f565b602082019050919050565b60006020820190508181036000830152612b9481612b58565b9050919050565b7f4552433732313a20746f6b656e20616c7265616479206d696e74656400000000600082015250565b6000612bd1601c83611d46565b9150612bdc82612b9b565b602082019050919050565b60006020820190508181036000830152612c0081612bc4565b9050919050565b7f4552433732313a20617070726f766520746f2063616c6c657200000000000000600082015250565b6000612c3d601983611d46565b9150612c4882612c07565b602082019050919050565b60006020820190508181036000830152612c6c81612c30565b9050919050565b7f4552433732313a207472616e7366657220746f206e6f6e20455243373231526560008201527f63656976657220696d706c656d656e7465720000000000000000000000000000602082015250565b6000612ccf603283611d46565b9150612cda82612c73565b604082019050919050565b60006020820190508181036000830152612cfe81612cc2565b9050919050565b7f4e487b7100000000000000000000000000000000000000000000000000000000600052601260045260246000fd5b600081519050919050565b600082825260208201905092915050565b6000612d5b82612d34565b612d658185612d3f565b9350612d75818560208601611d57565b612d7e81611d81565b840191505092915050565b6000608082019050612d9e6000830187611e82565b612dab6020830186611e82565b612db86040830185611f98565b8181036060830152612dca8184612d50565b905095945050505050565b600081519050612de481611cac565b92915050565b600060208284031215612e0057612dff611c76565b5b6000612e0e84828501612dd5565b9150509291505056fea2646970667358221220a6f9ec9eeb7200e20c03dea328b22badd6bdbaeae62ab58366e364ba329a6bad64736f6c63430008100033",
  "linkReferences": {},
  "deployedLinkReferences": {}
}